{
  "_format": "hh-sol-artifact-1",
  "contractName": "Campaign",
  "sourceName": "contracts/Campaign.sol",
  "abi": [
    {
      "inputs": [
        {
          "internalType": "contract ERC20",
          "name": "_usdc_contract",
          "type": "address"
        },
        {
          "internalType": "address",
          "name": "creator",
          "type": "address"
        },
        {
          "internalType": "string",
          "name": "_uri",
          "type": "string"
        },
        {
          "internalType": "uint256",
          "name": "number_of_days",
          "type": "uint256"
        },
        {
          "internalType": "uint256[]",
          "name": "amounts",
          "type": "uint256[]"
        },
        {
          "internalType": "uint256[]",
          "name": "supplies",
          "type": "uint256[]"
        },
        {
          "internalType": "string",
          "name": "_title",
          "type": "string"
        },
        {
          "internalType": "string",
          "name": "_image_url",
          "type": "string"
        }
      ],
      "stateMutability": "nonpayable",
      "type": "constructor"
    },
    {
      "anonymous": false,
      "inputs": [
        {
          "indexed": true,
          "internalType": "address",
          "name": "account",
          "type": "address"
        },
        {
          "indexed": true,
          "internalType": "address",
          "name": "operator",
          "type": "address"
        },
        {
          "indexed": false,
          "internalType": "bool",
          "name": "approved",
          "type": "bool"
        }
      ],
      "name": "ApprovalForAll",
      "type": "event"
    },
    {
      "anonymous": false,
      "inputs": [
        {
          "indexed": false,
          "internalType": "address",
          "name": "owner",
          "type": "address"
        },
        {
          "indexed": false,
          "internalType": "uint256",
          "name": "amount",
          "type": "uint256"
        }
      ],
      "name": "CollateralDeposited",
      "type": "event"
    },
    {
      "anonymous": false,
      "inputs": [
        {
          "indexed": false,
          "internalType": "uint256",
          "name": "id",
          "type": "uint256"
        },
        {
          "indexed": false,
          "internalType": "address",
          "name": "commentor",
          "type": "address"
        },
        {
          "indexed": false,
          "internalType": "string",
          "name": "content",
          "type": "string"
        }
      ],
      "name": "CommentAdded",
      "type": "event"
    },
    {
      "anonymous": false,
      "inputs": [
        {
          "indexed": false,
          "internalType": "address",
          "name": "sender",
          "type": "address"
        },
        {
          "indexed": false,
          "internalType": "uint256",
          "name": "value",
          "type": "uint256"
        },
        {
          "indexed": false,
          "internalType": "uint256",
          "name": "funding_balance",
          "type": "uint256"
        }
      ],
      "name": "Donated",
      "type": "event"
    },
    {
      "anonymous": false,
      "inputs": [
        {
          "indexed": false,
          "internalType": "uint256",
          "name": "order_id",
          "type": "uint256"
        },
        {
          "indexed": false,
          "internalType": "address",
          "name": "taker",
          "type": "address"
        }
      ],
      "name": "OrderCalled",
      "type": "event"
    },
    {
      "anonymous": false,
      "inputs": [
        {
          "indexed": false,
          "internalType": "uint256",
          "name": "order_id",
          "type": "uint256"
        }
      ],
      "name": "OrderCanceled",
      "type": "event"
    },
    {
      "anonymous": false,
      "inputs": [
        {
          "indexed": false,
          "internalType": "uint256",
          "name": "order_id",
          "type": "uint256"
        },
        {
          "indexed": false,
          "internalType": "enum ERC1155Dex.OrderType",
          "name": "order_type",
          "type": "uint8"
        },
        {
          "indexed": false,
          "internalType": "uint256",
          "name": "nft_id",
          "type": "uint256"
        },
        {
          "indexed": false,
          "internalType": "uint256",
          "name": "price",
          "type": "uint256"
        },
        {
          "indexed": false,
          "internalType": "address",
          "name": "maker",
          "type": "address"
        }
      ],
      "name": "OrderPosted",
      "type": "event"
    },
    {
      "anonymous": false,
      "inputs": [
        {
          "indexed": true,
          "internalType": "address",
          "name": "previousOwner",
          "type": "address"
        },
        {
          "indexed": true,
          "internalType": "address",
          "name": "newOwner",
          "type": "address"
        }
      ],
      "name": "OwnershipTransferred",
      "type": "event"
    },
    {
      "anonymous": false,
      "inputs": [
        {
          "indexed": false,
          "internalType": "address",
          "name": "sender",
          "type": "address"
        },
        {
          "indexed": false,
          "internalType": "uint256",
          "name": "id",
          "type": "uint256"
        },
        {
          "indexed": false,
          "internalType": "uint256",
          "name": "amount",
          "type": "uint256"
        }
      ],
      "name": "Refunded",
      "type": "event"
    },
    {
      "anonymous": false,
      "inputs": [
        {
          "indexed": false,
          "internalType": "address",
          "name": "sender",
          "type": "address"
        },
        {
          "indexed": false,
          "internalType": "uint256",
          "name": "id",
          "type": "uint256"
        },
        {
          "indexed": false,
          "internalType": "uint256",
          "name": "amount",
          "type": "uint256"
        },
        {
          "indexed": false,
          "internalType": "uint256",
          "name": "funding_balance",
          "type": "uint256"
        }
      ],
      "name": "RewardBought",
      "type": "event"
    },
    {
      "anonymous": false,
      "inputs": [
        {
          "indexed": false,
          "internalType": "address",
          "name": "sender",
          "type": "address"
        },
        {
          "indexed": false,
          "internalType": "uint256",
          "name": "id",
          "type": "uint256"
        },
        {
          "indexed": false,
          "internalType": "uint256",
          "name": "amount",
          "type": "uint256"
        }
      ],
      "name": "RewardClaimed",
      "type": "event"
    },
    {
      "anonymous": false,
      "inputs": [
        {
          "indexed": false,
          "internalType": "uint256",
          "name": "id",
          "type": "uint256"
        },
        {
          "indexed": false,
          "internalType": "uint256",
          "name": "amount",
          "type": "uint256"
        }
      ],
      "name": "RewardSupplyIncreased",
      "type": "event"
    },
    {
      "anonymous": false,
      "inputs": [
        {
          "indexed": true,
          "internalType": "address",
          "name": "operator",
          "type": "address"
        },
        {
          "indexed": true,
          "internalType": "address",
          "name": "from",
          "type": "address"
        },
        {
          "indexed": true,
          "internalType": "address",
          "name": "to",
          "type": "address"
        },
        {
          "indexed": false,
          "internalType": "uint256[]",
          "name": "ids",
          "type": "uint256[]"
        },
        {
          "indexed": false,
          "internalType": "uint256[]",
          "name": "values",
          "type": "uint256[]"
        }
      ],
      "name": "TransferBatch",
      "type": "event"
    },
    {
      "anonymous": false,
      "inputs": [
        {
          "indexed": true,
          "internalType": "address",
          "name": "operator",
          "type": "address"
        },
        {
          "indexed": true,
          "internalType": "address",
          "name": "from",
          "type": "address"
        },
        {
          "indexed": true,
          "internalType": "address",
          "name": "to",
          "type": "address"
        },
        {
          "indexed": false,
          "internalType": "uint256",
          "name": "id",
          "type": "uint256"
        },
        {
          "indexed": false,
          "internalType": "uint256",
          "name": "value",
          "type": "uint256"
        }
      ],
      "name": "TransferSingle",
      "type": "event"
    },
    {
      "anonymous": false,
      "inputs": [
        {
          "indexed": false,
          "internalType": "string",
          "name": "value",
          "type": "string"
        },
        {
          "indexed": true,
          "internalType": "uint256",
          "name": "id",
          "type": "uint256"
        }
      ],
      "name": "URI",
      "type": "event"
    },
    {
      "anonymous": false,
      "inputs": [
        {
          "indexed": false,
          "internalType": "uint256",
          "name": "id",
          "type": "uint256"
        },
        {
          "indexed": false,
          "internalType": "string",
          "name": "content",
          "type": "string"
        }
      ],
      "name": "UpdateAdded",
      "type": "event"
    },
    {
      "anonymous": false,
      "inputs": [
        {
          "indexed": false,
          "internalType": "address",
          "name": "sender",
          "type": "address"
        },
        {
          "indexed": false,
          "internalType": "uint256",
          "name": "pool_balance",
          "type": "uint256"
        }
      ],
      "name": "Withdrawn",
      "type": "event"
    },
    {
      "stateMutability": "payable",
      "type": "fallback"
    },
    {
      "inputs": [],
      "name": "MIN_PRICE",
      "outputs": [
        {
          "internalType": "uint256",
          "name": "",
          "type": "uint256"
        }
      ],
      "stateMutability": "view",
      "type": "function"
    },
    {
      "inputs": [
        {
          "internalType": "string",
          "name": "content",
          "type": "string"
        }
      ],
      "name": "add_comment",
      "outputs": [],
      "stateMutability": "nonpayable",
      "type": "function"
    },
    {
      "inputs": [
        {
          "internalType": "string",
          "name": "content",
          "type": "string"
        }
      ],
      "name": "add_update",
      "outputs": [],
      "stateMutability": "nonpayable",
      "type": "function"
    },
    {
      "inputs": [],
      "name": "amount_count",
      "outputs": [
        {
          "internalType": "uint256",
          "name": "",
          "type": "uint256"
        }
      ],
      "stateMutability": "view",
      "type": "function"
    },
    {
      "inputs": [
        {
          "internalType": "address",
          "name": "account",
          "type": "address"
        },
        {
          "internalType": "uint256",
          "name": "id",
          "type": "uint256"
        }
      ],
      "name": "balanceOf",
      "outputs": [
        {
          "internalType": "uint256",
          "name": "",
          "type": "uint256"
        }
      ],
      "stateMutability": "view",
      "type": "function"
    },
    {
      "inputs": [
        {
          "internalType": "address[]",
          "name": "accounts",
          "type": "address[]"
        },
        {
          "internalType": "uint256[]",
          "name": "ids",
          "type": "uint256[]"
        }
      ],
      "name": "balanceOfBatch",
      "outputs": [
        {
          "internalType": "uint256[]",
          "name": "",
          "type": "uint256[]"
        }
      ],
      "stateMutability": "view",
      "type": "function"
    },
    {
      "inputs": [
        {
          "internalType": "uint256",
          "name": "id",
          "type": "uint256"
        }
      ],
      "name": "buy_reward",
      "outputs": [],
      "stateMutability": "nonpayable",
      "type": "function"
    },
    {
      "inputs": [
        {
          "internalType": "uint256",
          "name": "order_id",
          "type": "uint256"
        }
      ],
      "name": "call_ask",
      "outputs": [],
      "stateMutability": "payable",
      "type": "function"
    },
    {
      "inputs": [
        {
          "internalType": "uint256",
          "name": "order_id",
          "type": "uint256"
        }
      ],
      "name": "call_bid",
      "outputs": [],
      "stateMutability": "payable",
      "type": "function"
    },
    {
      "inputs": [
        {
          "internalType": "uint256",
          "name": "order_id",
          "type": "uint256"
        }
      ],
      "name": "cancel_ask",
      "outputs": [],
      "stateMutability": "nonpayable",
      "type": "function"
    },
    {
      "inputs": [
        {
          "internalType": "uint256",
          "name": "order_id",
          "type": "uint256"
        }
      ],
      "name": "cancel_bid",
      "outputs": [],
      "stateMutability": "nonpayable",
      "type": "function"
    },
    {
      "inputs": [
        {
          "internalType": "uint256",
          "name": "id",
          "type": "uint256"
        },
        {
          "internalType": "uint256",
          "name": "amount",
          "type": "uint256"
        }
      ],
      "name": "claim_reward",
      "outputs": [],
      "stateMutability": "nonpayable",
      "type": "function"
    },
    {
      "inputs": [],
      "name": "claimed_count",
      "outputs": [
        {
          "internalType": "uint256",
          "name": "",
          "type": "uint256"
        }
      ],
      "stateMutability": "view",
      "type": "function"
    },
    {
      "inputs": [],
      "name": "comment_count",
      "outputs": [
        {
          "internalType": "uint256",
          "name": "",
          "type": "uint256"
        }
      ],
      "stateMutability": "view",
      "type": "function"
    },
    {
      "inputs": [
        {
          "internalType": "uint256",
          "name": "",
          "type": "uint256"
        }
      ],
      "name": "comments",
      "outputs": [
        {
          "internalType": "address",
          "name": "commentor",
          "type": "address"
        },
        {
          "internalType": "string",
          "name": "content",
          "type": "string"
        }
      ],
      "stateMutability": "view",
      "type": "function"
    },
    {
      "inputs": [],
      "name": "deadline",
      "outputs": [
        {
          "internalType": "uint256",
          "name": "",
          "type": "uint256"
        }
      ],
      "stateMutability": "view",
      "type": "function"
    },
    {
      "inputs": [],
      "name": "deposit_collateral",
      "outputs": [],
      "stateMutability": "nonpayable",
      "type": "function"
    },
    {
      "inputs": [],
      "name": "funding_balance",
      "outputs": [
        {
          "internalType": "uint256",
          "name": "",
          "type": "uint256"
        }
      ],
      "stateMutability": "view",
      "type": "function"
    },
    {
      "inputs": [],
      "name": "funding_goal",
      "outputs": [
        {
          "internalType": "uint256",
          "name": "",
          "type": "uint256"
        }
      ],
      "stateMutability": "view",
      "type": "function"
    },
    {
      "inputs": [
        {
          "internalType": "uint256",
          "name": "comment_id",
          "type": "uint256"
        }
      ],
      "name": "get_comment",
      "outputs": [
        {
          "internalType": "address",
          "name": "",
          "type": "address"
        },
        {
          "internalType": "string",
          "name": "",
          "type": "string"
        }
      ],
      "stateMutability": "view",
      "type": "function"
    },
    {
      "inputs": [
        {
          "internalType": "uint256",
          "name": "update_id",
          "type": "uint256"
        }
      ],
      "name": "get_update",
      "outputs": [
        {
          "internalType": "string",
          "name": "",
          "type": "string"
        },
        {
          "internalType": "uint256",
          "name": "",
          "type": "uint256"
        }
      ],
      "stateMutability": "view",
      "type": "function"
    },
    {
      "inputs": [
        {
          "internalType": "uint256",
          "name": "",
          "type": "uint256"
        }
      ],
      "name": "id_reward",
      "outputs": [
        {
          "internalType": "uint256",
          "name": "price",
          "type": "uint256"
        },
        {
          "internalType": "uint256",
          "name": "collateral",
          "type": "uint256"
        },
        {
          "internalType": "uint256",
          "name": "total_supply",
          "type": "uint256"
        },
        {
          "internalType": "uint256",
          "name": "current_supply",
          "type": "uint256"
        }
      ],
      "stateMutability": "view",
      "type": "function"
    },
    {
      "inputs": [
        {
          "internalType": "uint256",
          "name": "",
          "type": "uint256"
        }
      ],
      "name": "ids",
      "outputs": [
        {
          "internalType": "uint256",
          "name": "",
          "type": "uint256"
        }
      ],
      "stateMutability": "view",
      "type": "function"
    },
    {
      "inputs": [],
      "name": "image_url",
      "outputs": [
        {
          "internalType": "string",
          "name": "",
          "type": "string"
        }
      ],
      "stateMutability": "view",
      "type": "function"
    },
    {
      "inputs": [
        {
          "internalType": "uint256",
          "name": "id",
          "type": "uint256"
        },
        {
          "internalType": "uint256",
          "name": "amount",
          "type": "uint256"
        }
      ],
      "name": "increase_reward_supply",
      "outputs": [],
      "stateMutability": "nonpayable",
      "type": "function"
    },
    {
      "inputs": [
        {
          "internalType": "address",
          "name": "account",
          "type": "address"
        },
        {
          "internalType": "address",
          "name": "operator",
          "type": "address"
        }
      ],
      "name": "isApprovedForAll",
      "outputs": [
        {
          "internalType": "bool",
          "name": "",
          "type": "bool"
        }
      ],
      "stateMutability": "view",
      "type": "function"
    },
    {
      "inputs": [],
      "name": "is_deposited",
      "outputs": [
        {
          "internalType": "bool",
          "name": "",
          "type": "bool"
        }
      ],
      "stateMutability": "view",
      "type": "function"
    },
    {
      "inputs": [],
      "name": "is_funded",
      "outputs": [
        {
          "internalType": "bool",
          "name": "",
          "type": "bool"
        }
      ],
      "stateMutability": "view",
      "type": "function"
    },
    {
      "inputs": [],
      "name": "order_count",
      "outputs": [
        {
          "internalType": "uint256",
          "name": "",
          "type": "uint256"
        }
      ],
      "stateMutability": "view",
      "type": "function"
    },
    {
      "inputs": [
        {
          "internalType": "uint256",
          "name": "",
          "type": "uint256"
        }
      ],
      "name": "orders",
      "outputs": [
        {
          "internalType": "uint256",
          "name": "order_id",
          "type": "uint256"
        },
        {
          "internalType": "enum ERC1155Dex.OrderType",
          "name": "order_type",
          "type": "uint8"
        },
        {
          "internalType": "uint256",
          "name": "nft_id",
          "type": "uint256"
        },
        {
          "internalType": "uint256",
          "name": "price",
          "type": "uint256"
        },
        {
          "internalType": "bool",
          "name": "completed",
          "type": "bool"
        },
        {
          "internalType": "address",
          "name": "maker",
          "type": "address"
        }
      ],
      "stateMutability": "view",
      "type": "function"
    },
    {
      "inputs": [],
      "name": "owner",
      "outputs": [
        {
          "internalType": "address",
          "name": "",
          "type": "address"
        }
      ],
      "stateMutability": "view",
      "type": "function"
    },
    {
      "inputs": [
        {
          "internalType": "uint256",
          "name": "nft_id",
          "type": "uint256"
        },
        {
          "internalType": "uint256",
          "name": "price",
          "type": "uint256"
        }
      ],
      "name": "post_ask",
      "outputs": [
        {
          "internalType": "uint256",
          "name": "order_id",
          "type": "uint256"
        }
      ],
      "stateMutability": "nonpayable",
      "type": "function"
    },
    {
      "inputs": [
        {
          "internalType": "uint256",
          "name": "nft_id",
          "type": "uint256"
        }
      ],
      "name": "post_bid",
      "outputs": [
        {
          "internalType": "uint256",
          "name": "order_id",
          "type": "uint256"
        }
      ],
      "stateMutability": "payable",
      "type": "function"
    },
    {
      "inputs": [],
      "name": "refund_count",
      "outputs": [
        {
          "internalType": "uint256",
          "name": "",
          "type": "uint256"
        }
      ],
      "stateMutability": "view",
      "type": "function"
    },
    {
      "inputs": [],
      "name": "renounceOwnership",
      "outputs": [],
      "stateMutability": "nonpayable",
      "type": "function"
    },
    {
      "inputs": [
        {
          "internalType": "address",
          "name": "from",
          "type": "address"
        },
        {
          "internalType": "address",
          "name": "to",
          "type": "address"
        },
        {
          "internalType": "uint256[]",
          "name": "ids",
          "type": "uint256[]"
        },
        {
          "internalType": "uint256[]",
          "name": "amounts",
          "type": "uint256[]"
        },
        {
          "internalType": "bytes",
          "name": "data",
          "type": "bytes"
        }
      ],
      "name": "safeBatchTransferFrom",
      "outputs": [],
      "stateMutability": "nonpayable",
      "type": "function"
    },
    {
      "inputs": [
        {
          "internalType": "address",
          "name": "from",
          "type": "address"
        },
        {
          "internalType": "address",
          "name": "to",
          "type": "address"
        },
        {
          "internalType": "uint256",
          "name": "id",
          "type": "uint256"
        },
        {
          "internalType": "uint256",
          "name": "amount",
          "type": "uint256"
        },
        {
          "internalType": "bytes",
          "name": "data",
          "type": "bytes"
        }
      ],
      "name": "safeTransferFrom",
      "outputs": [],
      "stateMutability": "nonpayable",
      "type": "function"
    },
    {
      "inputs": [
        {
          "internalType": "string",
          "name": "info",
          "type": "string"
        },
        {
          "internalType": "uint256",
          "name": "id",
          "type": "uint256"
        }
      ],
      "name": "send_encrypted_info",
      "outputs": [],
      "stateMutability": "nonpayable",
      "type": "function"
    },
    {
      "inputs": [
        {
          "internalType": "address",
          "name": "operator",
          "type": "address"
        },
        {
          "internalType": "bool",
          "name": "approved",
          "type": "bool"
        }
      ],
      "name": "setApprovalForAll",
      "outputs": [],
      "stateMutability": "nonpayable",
      "type": "function"
    },
    {
      "inputs": [
        {
          "internalType": "bytes4",
          "name": "interfaceId",
          "type": "bytes4"
        }
      ],
      "name": "supportsInterface",
      "outputs": [
        {
          "internalType": "bool",
          "name": "",
          "type": "bool"
        }
      ],
      "stateMutability": "view",
      "type": "function"
    },
    {
      "inputs": [],
      "name": "title",
      "outputs": [
        {
          "internalType": "string",
          "name": "",
          "type": "string"
        }
      ],
      "stateMutability": "view",
      "type": "function"
    },
    {
      "inputs": [
        {
          "internalType": "address",
          "name": "newOwner",
          "type": "address"
        }
      ],
      "name": "transferOwnership",
      "outputs": [],
      "stateMutability": "nonpayable",
      "type": "function"
    },
    {
      "inputs": [],
      "name": "update_count",
      "outputs": [
        {
          "internalType": "uint256",
          "name": "",
          "type": "uint256"
        }
      ],
      "stateMutability": "view",
      "type": "function"
    },
    {
      "inputs": [
        {
          "internalType": "uint256",
          "name": "",
          "type": "uint256"
        }
      ],
      "name": "updates",
      "outputs": [
        {
          "internalType": "uint256",
          "name": "timestamp",
          "type": "uint256"
        },
        {
          "internalType": "string",
          "name": "content",
          "type": "string"
        }
      ],
      "stateMutability": "view",
      "type": "function"
    },
    {
      "inputs": [
        {
          "internalType": "uint256",
          "name": "",
          "type": "uint256"
        }
      ],
      "name": "uri",
      "outputs": [
        {
          "internalType": "string",
          "name": "",
          "type": "string"
        }
      ],
      "stateMutability": "view",
      "type": "function"
    },
    {
      "inputs": [],
      "name": "withdraw",
      "outputs": [],
      "stateMutability": "nonpayable",
      "type": "function"
    },
    {
      "stateMutability": "payable",
      "type": "receive"
    }
  ],
  "bytecode": "0x6080604052600060048190556006805460ff199081169091556009829055600e82905560108290556011919091556012805490911690553480156200004357600080fd5b5060405162004a1738038062004a17833981016040819052620000669162000728565b878787878585836200007c846201518062000881565b62000088904262000866565b816200009481620003ea565b5060055550620000a43362000403565b600083118015620000b65750605a8311155b620001085760405162461bcd60e51b815260206004820152601660248201527f496d70726f7065722064617973206c656e6774682e200000000000000000000060448201526064015b60405180910390fd5b62000113856200045d565b600880546001600160a01b0319166001600160a01b03881617905581516200014390601390602085019062000549565b5080516200015990601490602084019062000549565b505050505050508251845114620001bf5760405162461bcd60e51b8152602060048201526024808201527f416d6f756e747320616e6420707269636573206c656e677468206d69736d6174604482015263031b417160e51b6064820152608401620000ff565b6000845111620002125760405162461bcd60e51b815260206004820152601560248201527f4d75737420626520736f6d65207265776172642e2000000000000000000000006044820152606401620000ff565b60005b8451811015620003d6576103e88582815181106200024357634e487b7160e01b600052603260045260246000fd5b602002602001015110156200029b5760405162461bcd60e51b815260206004820152601c60248201527f5072696365206973206c657373207468616e206d696e696d616c2e20000000006044820152606401620000ff565b60008181526015602052604090208551869083908110620002cc57634e487b7160e01b600052603260045260246000fd5b60200260200101518160000181905550848281518110620002fd57634e487b7160e01b600052603260045260246000fd5b602002602001015181600201819055506200035060028784815181106200033457634e487b7160e01b600052603260045260246000fd5b60200260200101516200053460201b62002c451790919060201c565b6001828101919091556007805491820181556000527fa66cc928b5edb82af9bd49922954155ab7b0942694bea4ce44661d9a8736c6880182905560028101548154620003a89162000534602090811b62002c4517901c565b600a6000828254620003bb919062000866565b90915550620003ce9150829050620008e0565b905062000215565b50509151600c55506200092a945050505050565b8051620003ff90600290602084019062000549565b5050565b600680546001600160a01b03838116610100818102610100600160a81b031985161790945560405193909204169182907f8be0079c531659141344cd1fd0a4f28419497f9722a3daafe3b4186f6b6457e090600090a35050565b6006546001600160a01b03610100909104163314620004bf5760405162461bcd60e51b815260206004820181905260248201527f4f776e61626c653a2063616c6c6572206973206e6f7420746865206f776e65726044820152606401620000ff565b6001600160a01b038116620005265760405162461bcd60e51b815260206004820152602660248201527f4f776e61626c653a206e6577206f776e657220697320746865207a65726f206160448201526564647265737360d01b6064820152608401620000ff565b620005318162000403565b50565b600062000542828462000881565b9392505050565b8280546200055790620008a3565b90600052602060002090601f0160209004810192826200057b5760008555620005c6565b82601f106200059657805160ff1916838001178555620005c6565b82800160010185558215620005c6579182015b82811115620005c6578251825591602001919060010190620005a9565b50620005d4929150620005d8565b5090565b5b80821115620005d45760008155600101620005d9565b80516001600160a01b03811681146200060757600080fd5b919050565b600082601f8301126200061d578081fd5b815160206001600160401b038211156200063b576200063b62000914565b8160051b6200064c82820162000833565b83815282810190868401838801850189101562000667578687fd5b8693505b858410156200068b5780518352600193909301929184019184016200066b565b50979650505050505050565b600082601f830112620006a8578081fd5b81516001600160401b03811115620006c457620006c462000914565b6020620006da601f8301601f1916820162000833565b8281528582848701011115620006ee578384fd5b835b838110156200070d578581018301518282018401528201620006f0565b838111156200071e57848385840101525b5095945050505050565b600080600080600080600080610100898b03121562000745578384fd5b6200075089620005ef565b97506200076060208a01620005ef565b60408a01519097506001600160401b03808211156200077d578586fd5b6200078b8c838d0162000697565b975060608b0151965060808b0151915080821115620007a8578586fd5b620007b68c838d016200060c565b955060a08b0151915080821115620007cc578485fd5b620007da8c838d016200060c565b945060c08b0151915080821115620007f0578384fd5b620007fe8c838d0162000697565b935060e08b015191508082111562000814578283fd5b50620008238b828c0162000697565b9150509295985092959890939650565b604051601f8201601f191681016001600160401b03811182821017156200085e576200085e62000914565b604052919050565b600082198211156200087c576200087c620008fe565b500190565b60008160001904831182151516156200089e576200089e620008fe565b500290565b600181811c90821680620008b857607f821691505b60208210811415620008da57634e487b7160e01b600052602260045260246000fd5b50919050565b6000600019821415620008f757620008f7620008fe565b5060010190565b634e487b7160e01b600052601160045260246000fd5b634e487b7160e01b600052604160045260246000fd5b6140dd806200093a6000396000f3fe6080604052600436106102805760003560e01c80637a09bbf71161014f578063b4c2f727116100c1578063f242432a1161007a578063f242432a1461083a578063f2fde38b1461085a578063f67719d11461087a578063fac333ac14610890578063ffc56696146108b0578063ffedfa2f146108c6576102bb565b8063b4c2f72714610742578063cc0f386b14610770578063d146072414610783578063d747a1af146107a3578063d760208f146107c3578063e985e9c5146107f1576102bb565b80639f59520c116101135780639f59520c1461064f578063a22cb465146106b1578063a85c38ef146106d1578063ad9f20a614610703578063ae64d26d14610719578063b41dc1a71461072f576102bb565b80637a09bbf714610596578063824f4baf146105b65780638da5cb5b146105cb5780638ebb4c151461060157806394321b291461062f576102bb565b80632eb2c2d6116101f3578063541ffbdb116101ac578063541ffbdb146104fb5780635629629714610511578063609081491461052b578063715018a61461054b57806371f699ac146105605780637832613514610580576102bb565b80632eb2c2d61461044a5780633ccfd60b1461046a57806345857a9a1461047f5780634a79d50c1461049f5780634b6026bb146104b45780634e1273f4146104ce576102bb565b80631e67a4ec116102455780631e67a4ec146103b357806327adc0a0146103d35780632996c165146103e857806329dcb0cf146104085780632a1f11991461041e5780632b9e66ee14610434576102bb565b8062fdd58e146102ed57806301ffc9a714610320578063045ca5881461035057806305a82fce146103665780630e89341c14610386576102bb565b366102bb5734156102b95760405133903480156108fc02916000818181858888f193505050501580156102b7573d6000803e3d6000fd5b505b005b34156102b95760405133903480156108fc02916000818181858888f193505050501580156102b7573d6000803e3d6000fd5b3480156102f957600080fd5b5061030d6103083660046137fd565b6108d9565b6040519081526020015b60405180910390f35b34801561032c57600080fd5b5061034061033b36600461390d565b610970565b6040519015158152602001610317565b34801561035c57600080fd5b5061030d60115481565b34801561037257600080fd5b506102b96103813660046139f3565b6109c2565b34801561039257600080fd5b506103a66103a13660046139c3565b610c3a565b6040516103179190613bc3565b3480156103bf57600080fd5b506102b96103ce366004613945565b610cce565b3480156103df57600080fd5b506102b9610dc7565b3480156103f457600080fd5b506102b96104033660046139c3565b61104b565b34801561041457600080fd5b5061030d60055481565b34801561042a57600080fd5b5061030d60045481565b34801561044057600080fd5b5061030d600c5481565b34801561045657600080fd5b506102b96104653660046136be565b61116f565b34801561047657600080fd5b506102b9611206565b34801561048b57600080fd5b506102b961049a3660046139f3565b6113c7565b3480156104ab57600080fd5b506103a6611671565b3480156104c057600080fd5b506006546103409060ff1681565b3480156104da57600080fd5b506104ee6104e9366004613826565b6116ff565b6040516103179190613b82565b34801561050757600080fd5b5061030d60105481565b34801561051d57600080fd5b506012546103409060ff1681565b34801561053757600080fd5b506102b9610546366004613945565b611861565b34801561055757600080fd5b506102b9611960565b34801561056c57600080fd5b506102b961057b366004613980565b61199c565b34801561058c57600080fd5b5061030d600a5481565b3480156105a257600080fd5b5061030d6105b13660046139f3565b611a3c565b3480156105c257600080fd5b506103a6611c5e565b3480156105d757600080fd5b5060065461010090046001600160a01b03166040516001600160a01b039091168152602001610317565b34801561060d57600080fd5b5061062161061c3660046139c3565b611c6b565b604051610317929190613b5e565b34801561063b57600080fd5b506102b961064a3660046139c3565b611d2d565b34801561065b57600080fd5b5061069161066a3660046139c3565b60156020526000908152604090208054600182015460028301546003909301549192909184565b604080519485526020850193909352918301526060820152608001610317565b3480156106bd57600080fd5b506102b96106cc3660046137c7565b6120a8565b3480156106dd57600080fd5b506106f16106ec3660046139c3565b61217f565b60405161031796959493929190613e7d565b34801561070f57600080fd5b5061030d6103e881565b34801561072557600080fd5b5061030d60095481565b6102b961073d3660046139c3565b6121d7565b34801561074e57600080fd5b5061076261075d3660046139c3565b6123d7565b604051610317929190613ebe565b61030d61077e3660046139c3565b61240c565b34801561078f57600080fd5b5061062161079e3660046139c3565b612622565b3480156107af57600080fd5b506102b96107be3660046139c3565b61274a565b3480156107cf57600080fd5b506107e36107de3660046139c3565b612873565b604051610317929190613bd6565b3480156107fd57600080fd5b5061034061080c36600461368c565b6001600160a01b03918216600090815260016020908152604080832093909416825291909152205460ff1690565b34801561084657600080fd5b506102b9610855366004613764565b61298d565b34801561086657600080fd5b506102b9610875366004613672565b612a14565b34801561088657600080fd5b5061030d600b5481565b34801561089c57600080fd5b5061030d6108ab3660046139c3565b612ab5565b3480156108bc57600080fd5b5061030d600e5481565b6102b96108d43660046139c3565b612ad6565b60006001600160a01b03831661094a5760405162461bcd60e51b815260206004820152602b60248201527f455243313135353a2062616c616e636520717565727920666f7220746865207a60448201526a65726f206164647265737360a81b60648201526084015b60405180910390fd5b506000908152602081815260408083206001600160a01b03949094168352929052205490565b60006001600160e01b03198216636cdb3d1360e11b14806109a157506001600160e01b031982166303a24d0760e21b145b806109bc57506301ffc9a760e01b6001600160e01b03198316145b92915050565b6006546001600160a01b036101009091041633146109f25760405162461bcd60e51b815260040161094190613d5a565b6005544210610a135760405162461bcd60e51b815260040161094190613d8f565b600c548210610a345760405162461bcd60e51b815260040161094190613dbd565b60008281526015602052604081208054909190610a52908490612c45565b600854604051636eb1769f60e11b81523360048201523060248201529192506001600160a01b03169063dd62ed3e9060440160206040518083038186803b158015610a9c57600080fd5b505afa158015610ab0573d6000803e3d6000fd5b505050506040513d601f19601f82011682018060405250810190610ad491906139db565b811115610b235760405162461bcd60e51b815260206004820152601c60248201527f4e6f7420656e6f75676820636f6c6c61746572616c2073656e742e20000000006044820152606401610941565b82826002016000828254610b379190613efb565b9250508190555080600a6000828254610b509190613efb565b90915550506008546040516323b872dd60e01b8152336004820152306024820152604481018390526001600160a01b03909116906323b872dd90606401602060405180830381600087803b158015610ba757600080fd5b505af1158015610bbb573d6000803e3d6000fd5b505050506040513d601f19601f82011682018060405250810190610bdf91906138f1565b610bfb5760405162461bcd60e51b815260040161094190613de3565b60408051858152602081018590527f1923b39ebab18119c4e0177243d94a5b63b2d2afef8136bf05ad9b134904269a910160405180910390a150505050565b606060028054610c4990613f32565b80601f0160208091040260200160405190810160405280929190818152602001828054610c7590613f32565b8015610cc25780601f10610c9757610100808354040283529160200191610cc2565b820191906000526020600020905b815481529060010190602001808311610ca557829003601f168201915b50505050509050919050565b604080518082019091523381526020808201838152600d8054600181018255600091909152835160029091027fd7b6990105719101dabeb77144f2a3385c8033acd3af97e9423a695e81ad1eb5810180546001600160a01b03939093166001600160a01b0319909316929092178255915180519193610d72937fd7b6990105719101dabeb77144f2a3385c8033acd3af97e9423a695e81ad1eb601929101906134da565b5050600e80547fcc2d7dd2085ae6644799a42c0174adf9afc10a43f26db5eac3ddd1f96d1d64be9250906000610da783613f9a565b919050553383604051610dbc93929190613e1a565b60405180910390a150565b6005544210610de85760405162461bcd60e51b815260040161094190613d8f565b6006546001600160a01b03610100909104163314610e185760405162461bcd60e51b815260040161094190613d5a565b60125460ff1615610e6b5760405162461bcd60e51b815260206004820152601e60248201527f436f6c6c61746572616c20616c7265616479206465706f73697465642e2000006044820152606401610941565b600854604051636eb1769f60e11b81523360048201523060248201526001600160a01b039091169063dd62ed3e9060440160206040518083038186803b158015610eb457600080fd5b505afa158015610ec8573d6000803e3d6000fd5b505050506040513d601f19601f82011682018060405250810190610eec91906139db565b600a541115610f555760405162461bcd60e51b815260206004820152602f60248201527f436f6c6c61746572616c20616d6f756e7420646f6573206e6f7420657175616c60448201526e0103a379036b9b3973b30b63ab2971608d1b6064820152608401610941565b6012805460ff19166001179055600854600a546040516323b872dd60e01b815233600482015230602482015260448101919091526001600160a01b03909116906323b872dd90606401602060405180830381600087803b158015610fb857600080fd5b505af1158015610fcc573d6000803e3d6000fd5b505050506040513d601f19601f82011682018060405250810190610ff091906138f1565b61100c5760405162461bcd60e51b815260040161094190613de3565b600a546040805133815260208101929092527fd7243f6f8212d5188fd054141cf6ea89cfc0d91facb8c3afe2f88a1358480142910160405180910390a1565b60006003828154811061106e57634e487b7160e01b600052603260045260246000fd5b60009182526020909120600590910201600481015490915060ff16156110a65760405162461bcd60e51b815260040161094190613c6e565b60048101546001600160a01b036101009091041633146111025760405162461bcd60e51b815260206004820152601760248201527602cb7ba9030b932903737ba103a34329036b0b5b2b9171604d1b6044820152606401610941565b611122338260020154600160405180602001604052806000815250612c58565b60048101805460ff191660011790556040517fc41f4ceb2938876c35e61b705e9d2f18a02c4a26ce5e049a6308a943d46851b3906111639084815260200190565b60405180910390a15050565b6001600160a01b03851633148061118b575061118b853361080c565b6111f25760405162461bcd60e51b815260206004820152603260248201527f455243313135353a207472616e736665722063616c6c6572206973206e6f74206044820152711bdddb995c881b9bdc88185c1c1c9bdd995960721b6064820152608401610941565b6111ff8585858585612d62565b5050505050565b6006546001600160a01b036101009091041633146112365760405162461bcd60e51b815260040161094190613d5a565b60055442101561127d5760405162461bcd60e51b8152602060048201526012602482015271021b0b6b830b4b3b71034b99037b832b717160751b6044820152606401610941565b60065460ff1661129f5760405162461bcd60e51b815260040161094190613c9c565b600b546000906112b0906002612c45565b6000600b5560085460405163a9059cbb60e01b8152336004820152602481018390529192506001600160a01b03169063a9059cbb90604401602060405180830381600087803b15801561130257600080fd5b505af1158015611316573d6000803e3d6000fd5b505050506040513d601f19601f8201168201806040525081019061133a91906138f1565b6113915760405162461bcd60e51b815260206004820152602260248201527f4572726f72206d616b696e672061207769746864726177207472616e73666572604482015261017160f51b6064820152608401610941565b60408051338152602081018390527f7084f5476618d8e60b11ef0d7d3f06914655adb8793e28ff7f018d4c76d505d59101610dbc565b60065460ff166113e95760405162461bcd60e51b815260040161094190613c9c565b600c54821061140a5760405162461bcd60e51b815260040161094190613dbd565b611415338383612f5b565b80601160008282546114279190613efb565b909155505060008281526015602052604090206008546001600160a01b031663a9059cbb6114636006546001600160a01b036101009091041690565b6001840154611473908690612c45565b6040516001600160e01b031960e085901b1681526001600160a01b0390921660048301526024820152604401602060405180830381600087803b1580156114b957600080fd5b505af11580156114cd573d6000803e3d6000fd5b505050506040513d601f19601f820116820180604052508101906114f191906138f1565b61153d5760405162461bcd60e51b815260206004820152601c60248201527f4572726f72207472616e73666572696e6720746f206f776e65722e20000000006044820152606401610941565b60085481546001600160a01b039091169063a9059cbb903390611561908690612c45565b6040516001600160e01b031960e085901b1681526001600160a01b0390921660048301526024820152604401602060405180830381600087803b1580156115a757600080fd5b505af11580156115bb573d6000803e3d6000fd5b505050506040513d601f19601f820116820180604052508101906115df91906138f1565b61162b5760405162461bcd60e51b815260206004820152601d60248201527f4572726f72207472616e73666572696e6720746f206275726e65722e200000006044820152606401610941565b60408051338152602081018590529081018390527ff01da32686223933d8a18a391060918c7f11a3648639edd87ae013e2e27317439060600160405180910390a1505050565b6013805461167e90613f32565b80601f01602080910402602001604051908101604052809291908181526020018280546116aa90613f32565b80156116f75780601f106116cc576101008083540402835291602001916116f7565b820191906000526020600020905b8154815290600101906020018083116116da57829003601f168201915b505050505081565b606081518351146117645760405162461bcd60e51b815260206004820152602960248201527f455243313135353a206163636f756e747320616e6420696473206c656e677468604482015268040dad2e6dac2e8c6d60bb1b6064820152608401610941565b6000835167ffffffffffffffff81111561178e57634e487b7160e01b600052604160045260246000fd5b6040519080825280602002602001820160405280156117b7578160200160208202803683370190505b50905060005b84518110156118595761181e8582815181106117e957634e487b7160e01b600052603260045260246000fd5b602002602001015185838151811061181157634e487b7160e01b600052603260045260246000fd5b60200260200101516108d9565b82828151811061183e57634e487b7160e01b600052603260045260246000fd5b602090810291909101015261185281613f9a565b90506117bd565b509392505050565b6006546001600160a01b036101009091041633146118915760405162461bcd60e51b815260040161094190613d5a565b604080518082019091524281526020808201838152600f8054600181018255600091909152835160029091027f8d1108e10bcb7c27dddfc02ed9d693a074039d026cf4ea4240b40f7d581ac8028101918255915180519193611918937f8d1108e10bcb7c27dddfc02ed9d693a074039d026cf4ea4240b40f7d581ac80301929101906134da565b5050601080547fc76497df999dfea988f5a0f07e8897692c042cc4ed233e65b817365c692bbb0f925090600061194d83613f9a565b9190505582604051610dbc929190613ebe565b6006546001600160a01b036101009091041633146119905760405162461bcd60e51b815260040161094190613d5a565b61199a60006130d5565b565b60065460ff166119be5760405162461bcd60e51b815260040161094190613c9c565b60006119ca33836108d9565b11611a175760405162461bcd60e51b815260206004820152601c60248201527f596f7520646f206e6f74206861766520746865207265776172642e20000000006044820152606401610941565b3360009081526016602090815260409091208351611a37928501906134da565b505050565b60006005544210611a5f5760405162461bcd60e51b815260040161094190613d8f565b60065460ff1615611a825760405162461bcd60e51b815260040161094190613c40565b6103e8821015611ad45760405162461bcd60e51b815260206004820152601c60248201527f5072696365206973206c657373207468616e206d696e696d616c2e20000000006044820152606401610941565b611ae033846001612f5b565b506004546040805160c081018252828152600160208201818152928201869052606082018590526000608083018190523360a08401526003805480840182559152825160059091027fc2575a0e9e593c00f959f8c92f12db2869c3395a3b0502d05e2516446f71f85b810191825593517fc2575a0e9e593c00f959f8c92f12db2869c3395a3b0502d05e2516446f71f85c9094018054939491939192909160ff1916908381811115611ba257634e487b7160e01b600052602160045260246000fd5b0217905550604082015160028201556060820151600382015560808201516004918201805460a0909401516001600160a01b031661010002610100600160a81b0319921515929092166001600160a81b031990941693909317179091558054906000611c0d83613f9a565b91905055507f62317d9a57a5daf76ddf50f27c2f5e8ee74ec45e74c658ee168747579d76a1858160018585611c3f3390565b604051611c50959493929190613e44565b60405180910390a192915050565b6014805461167e90613f32565b600d8181548110611c7b57600080fd5b6000918252602090912060029091020180546001820180546001600160a01b03909216935090611caa90613f32565b80601f0160208091040260200160405190810160405280929190818152602001828054611cd690613f32565b8015611d235780601f10611cf857610100808354040283529160200191611d23565b820191906000526020600020905b815481529060010190602001808311611d0657829003601f168201915b5050505050905082565b6005544210611d4e5760405162461bcd60e51b815260040161094190613d8f565b600c548110611d6f5760405162461bcd60e51b815260040161094190613dbd565b60125460ff16611dcc5760405162461bcd60e51b815260206004820152602260248201527f4f776e657220646964206e6f74206465706f73697420636f6c6c61746572616c604482015261017160f51b6064820152608401610941565b60065460ff1615611e1f5760405162461bcd60e51b815260206004820152601960248201527f43616d706169676e20616c72656164792066756e6465642e20000000000000006044820152606401610941565b600081815260156020526040908190206008549151636eb1769f60e11b815233600482015230602482015290916001600160a01b03169063dd62ed3e9060440160206040518083038186803b158015611e7757600080fd5b505afa158015611e8b573d6000803e3d6000fd5b505050506040513d601f19601f82011682018060405250810190611eaf91906139db565b81600101541115611efc5760405162461bcd60e51b815260206004820152601760248201527602737ba1032b737bab3b41036b7b732bc9039b2b73a171604d1b6044820152606401610941565b8060030154816002015411611f475760405162461bcd60e51b8152602060048201526011602482015270029bab838363c9032bc31b2b2b232b2171607d1b6044820152606401610941565b611f633383600160405180602001604052806000815250612c58565b6001816003016000828254611f789190613efb565b90915550508054600b8054600090611f91908490613efb565b9091555050600a54600b541415611fb0576006805460ff191660011790555b60085460018201546040516323b872dd60e01b815233600482015230602482015260448101919091526001600160a01b03909116906323b872dd90606401602060405180830381600087803b15801561200857600080fd5b505af115801561201c573d6000803e3d6000fd5b505050506040513d601f19601f8201168201806040525081019061204091906138f1565b61205c5760405162461bcd60e51b815260040161094190613de3565b6001810154600b5460408051338152602081018690529081019290925260608201527f6e98c947738f7b03fea5bf35b82fd9b96e27d4e3b8d0628c38bfc8dd30db684190608001611163565b336001600160a01b03831614156121135760405162461bcd60e51b815260206004820152602960248201527f455243313135353a2073657474696e6720617070726f76616c20737461747573604482015268103337b91039b2b63360b91b6064820152608401610941565b3360008181526001602090815260408083206001600160a01b03871680855290835292819020805460ff191686151590811790915590519081529192917f17307eab39ab6107e8899845ad3d59bd9653f200f220920489ca2b5937696c31910160405180910390a35050565b6003818154811061218f57600080fd5b60009182526020909120600590910201805460018201546002830154600384015460049094015492945060ff918216939092909181169061010090046001600160a01b031686565b60055442106121f85760405162461bcd60e51b815260040161094190613d8f565b60065460ff161561221b5760405162461bcd60e51b815260040161094190613c40565b60006003828154811061223e57634e487b7160e01b600052603260045260246000fd5b60009182526020909120600590910201600481015490915060ff16156122765760405162461bcd60e51b815260040161094190613c6e565b60048101546001600160a01b03610100909104163314156122cf5760405162461bcd60e51b815260206004820152601360248201527202cb7ba9030b932903a34329036b0b5b2b9171606d1b6044820152606401610941565b806003015434101561231d5760405162461bcd60e51b815260206004820152601760248201527602737ba1032b737bab3b41036b7b732bc9039b2b73a171604d1b6044820152606401610941565b61233d338260020154600160405180602001604052806000815250612c58565b600481015460038201546040516101009092046001600160a01b0316916108fc82150291906000818181858888f19350505050158015612381573d6000803e3d6000fd5b5060048101805460ff191660011790557f2b5e8b63b9bdec78112f8183b2dacdb0a2c0f38f63d3bfc060172b603a9e5542826123ba3390565b604080519283526001600160a01b03909116602083015201611163565b600f81815481106123e757600080fd5b60009182526020909120600290910201805460018201805491935090611caa90613f32565b6000600554421061242f5760405162461bcd60e51b815260040161094190613d8f565b60065460ff16156124525760405162461bcd60e51b815260040161094190613c40565b6103e83410156124a45760405162461bcd60e51b815260206004820152601c60248201527f5072696365206973206c657373207468616e206d696e696d616c2e20000000006044820152606401610941565b506004546040805160c081018252828152600060208201818152928201859052346060830152608082018190523360a0830152600380546001808201835591909252825160059092027fc2575a0e9e593c00f959f8c92f12db2869c3395a3b0502d05e2516446f71f85b810192835593517fc2575a0e9e593c00f959f8c92f12db2869c3395a3b0502d05e2516446f71f85c909401805493949293909160ff1990911690838181111561256757634e487b7160e01b600052602160045260246000fd5b0217905550604082015160028201556060820151600382015560808201516004918201805460a0909401516001600160a01b031661010002610100600160a81b0319921515929092166001600160a81b0319909416939093171790915580549060006125d283613f9a565b91905055507f62317d9a57a5daf76ddf50f27c2f5e8ee74ec45e74c658ee168747579d76a18581600084346126043390565b604051612615959493929190613e44565b60405180910390a1919050565b60006060600e54831061266b5760405162461bcd60e51b8152602060048201526011602482015270027379039bab1b41031b7b6b6b2b73a171607d1b6044820152606401610941565b6000600d848154811061268e57634e487b7160e01b600052603260045260246000fd5b6000918252602090912060029091020180546001820180549293506001600160a01b039091169181906126c090613f32565b80601f01602080910402602001604051908101604052809291908181526020018280546126ec90613f32565b80156127395780601f1061270e57610100808354040283529160200191612739565b820191906000526020600020905b81548152906001019060200180831161271c57829003601f168201915b505050505090509250925050915091565b60006003828154811061276d57634e487b7160e01b600052603260045260246000fd5b60009182526020909120600590910201600481015490915060ff16156127a55760405162461bcd60e51b815260040161094190613c6e565b60048101546001600160a01b036101009091041633146128015760405162461bcd60e51b815260206004820152601760248201527602cb7ba9030b932903737ba103a34329036b0b5b2b9171604d1b6044820152606401610941565b6003810154604051339180156108fc02916000818181858888f19350505050158015612831573d6000803e3d6000fd5b5060048101805460ff191660011790556040517fc41f4ceb2938876c35e61b705e9d2f18a02c4a26ce5e049a6308a943d46851b3906111639084815260200190565b6060600060105483106128bb5760405162461bcd60e51b815260206004820152601060248201526f027379039bab1b4103ab83230ba3297160851b6044820152606401610941565b6000600f84815481106128de57634e487b7160e01b600052603260045260246000fd5b9060005260206000209060020201905080600101816000015481805461290390613f32565b80601f016020809104026020016040519081016040528092919081815260200182805461292f90613f32565b801561297c5780601f106129515761010080835404028352916020019161297c565b820191906000526020600020905b81548152906001019060200180831161295f57829003601f168201915b505050505091509250925050915091565b6001600160a01b0385163314806129a957506129a9853361080c565b612a075760405162461bcd60e51b815260206004820152602960248201527f455243313135353a2063616c6c6572206973206e6f74206f776e6572206e6f7260448201526808185c1c1c9bdd995960ba1b6064820152608401610941565b6111ff858585858561312f565b6006546001600160a01b03610100909104163314612a445760405162461bcd60e51b815260040161094190613d5a565b6001600160a01b038116612aa95760405162461bcd60e51b815260206004820152602660248201527f4f776e61626c653a206e6577206f776e657220697320746865207a65726f206160448201526564647265737360d01b6064820152608401610941565b612ab2816130d5565b50565b60078181548110612ac557600080fd5b600091825260209091200154905081565b6005544210612af75760405162461bcd60e51b815260040161094190613d8f565b60065460ff1615612b1a5760405162461bcd60e51b815260040161094190613c40565b600060038281548110612b3d57634e487b7160e01b600052603260045260246000fd5b60009182526020909120600590910201600481015490915060ff1615612b755760405162461bcd60e51b815260040161094190613c6e565b60048101546001600160a01b0361010090910416331415612bce5760405162461bcd60e51b815260206004820152601360248201527202cb7ba9030b932903a34329036b0b5b2b9171606d1b6044820152606401610941565b612bde3382600201546001612f5b565b612c158160040160019054906101000a90046001600160a01b03168260020154600160405180602001604052806000815250612c58565b6003810154604051339180156108fc02916000818181858888f19350505050158015612381573d6000803e3d6000fd5b6000612c518284613f13565b9392505050565b6001600160a01b038416612cb85760405162461bcd60e51b815260206004820152602160248201527f455243313135353a206d696e7420746f20746865207a65726f206164647265736044820152607360f81b6064820152608401610941565b33612cd281600087612cc98861324c565b6111ff8861324c565b6000848152602081815260408083206001600160a01b038916845290915281208054859290612d02908490613efb565b909155505060408051858152602081018590526001600160a01b0380881692600092918516917fc3d58168c5ae7397731d063d5bbf3d657854427343f4c083240f7aacaa2d0f62910160405180910390a46111ff816000878787876132a5565b8151835114612dc45760405162461bcd60e51b815260206004820152602860248201527f455243313135353a2069647320616e6420616d6f756e7473206c656e677468206044820152670dad2e6dac2e8c6d60c31b6064820152608401610941565b6001600160a01b038416612dea5760405162461bcd60e51b815260040161094190613ccb565b3360005b8451811015612eed576000858281518110612e1957634e487b7160e01b600052603260045260246000fd5b602002602001015190506000858381518110612e4557634e487b7160e01b600052603260045260246000fd5b602090810291909101810151600084815280835260408082206001600160a01b038e168352909352919091205490915081811015612e955760405162461bcd60e51b815260040161094190613d10565b6000838152602081815260408083206001600160a01b038e8116855292528083208585039055908b16825281208054849290612ed2908490613efb565b9250508190555050505080612ee690613f9a565b9050612dee565b50846001600160a01b0316866001600160a01b0316826001600160a01b03167f4a39dc06d4c0dbc64b70af90fd698a233a518aa5d07e595d983b8c0526c8f7fb8787604051612f3d929190613b95565b60405180910390a4612f53818787878787613410565b505050505050565b6001600160a01b038316612fbd5760405162461bcd60e51b815260206004820152602360248201527f455243313135353a206275726e2066726f6d20746865207a65726f206164647260448201526265737360e81b6064820152608401610941565b33612fed81856000612fce8761324c565b612fd78761324c565b5050604080516020810190915260009052505050565b6000838152602081815260408083206001600160a01b03881684529091529020548281101561306a5760405162461bcd60e51b8152602060048201526024808201527f455243313135353a206275726e20616d6f756e7420657863656564732062616c604482015263616e636560e01b6064820152608401610941565b6000848152602081815260408083206001600160a01b03898116808652918452828520888703905582518981529384018890529092908616917fc3d58168c5ae7397731d063d5bbf3d657854427343f4c083240f7aacaa2d0f62910160405180910390a45050505050565b600680546001600160a01b03838116610100818102610100600160a81b031985161790945560405193909204169182907f8be0079c531659141344cd1fd0a4f28419497f9722a3daafe3b4186f6b6457e090600090a35050565b6001600160a01b0384166131555760405162461bcd60e51b815260040161094190613ccb565b33613165818787612cc98861324c565b6000848152602081815260408083206001600160a01b038a168452909152902054838110156131a65760405162461bcd60e51b815260040161094190613d10565b6000858152602081815260408083206001600160a01b038b81168552925280832087850390559088168252812080548692906131e3908490613efb565b909155505060408051868152602081018690526001600160a01b03808916928a821692918616917fc3d58168c5ae7397731d063d5bbf3d657854427343f4c083240f7aacaa2d0f62910160405180910390a46132438288888888886132a5565b50505050505050565b6040805160018082528183019092526060916000919060208083019080368337019050509050828160008151811061329457634e487b7160e01b600052603260045260246000fd5b602090810291909101015292915050565b6001600160a01b0384163b15612f535760405163f23a6e6160e01b81526001600160a01b0385169063f23a6e61906132e99089908990889088908890600401613b19565b602060405180830381600087803b15801561330357600080fd5b505af1925050508015613333575060408051601f3d908101601f1916820190925261333091810190613929565b60015b6133e05761333f613fe1565b806308c379a014156133795750613354613ff9565b8061335f575061337b565b8060405162461bcd60e51b81526004016109419190613bc3565b505b60405162461bcd60e51b815260206004820152603460248201527f455243313135353a207472616e7366657220746f206e6f6e20455243313135356044820152732932b1b2b4bb32b91034b6b83632b6b2b73a32b960611b6064820152608401610941565b6001600160e01b0319811663f23a6e6160e01b146132435760405162461bcd60e51b815260040161094190613bf8565b6001600160a01b0384163b15612f535760405163bc197c8160e01b81526001600160a01b0385169063bc197c81906134549089908990889088908890600401613abb565b602060405180830381600087803b15801561346e57600080fd5b505af192505050801561349e575060408051601f3d908101601f1916820190925261349b91810190613929565b60015b6134aa5761333f613fe1565b6001600160e01b0319811663bc197c8160e01b146132435760405162461bcd60e51b815260040161094190613bf8565b8280546134e690613f32565b90600052602060002090601f016020900481019282613508576000855561354e565b82601f1061352157805160ff191683800117855561354e565b8280016001018555821561354e579182015b8281111561354e578251825591602001919060010190613533565b5061355a92915061355e565b5090565b5b8082111561355a576000815560010161355f565b80356001600160a01b038116811461358a57600080fd5b919050565b600082601f83011261359f578081fd5b813560206135ac82613ed7565b6040516135b98282613f6d565b8381528281019150858301600585901b870184018810156135d8578586fd5b855b858110156135f6578135845292840192908401906001016135da565b5090979650505050505050565b600082601f830112613613578081fd5b813567ffffffffffffffff81111561362d5761362d613fcb565b604051613644601f8301601f191660200182613f6d565b818152846020838601011115613658578283fd5b816020850160208301379081016020019190915292915050565b600060208284031215613683578081fd5b612c5182613573565b6000806040838503121561369e578081fd5b6136a783613573565b91506136b560208401613573565b90509250929050565b600080600080600060a086880312156136d5578081fd5b6136de86613573565b94506136ec60208701613573565b9350604086013567ffffffffffffffff80821115613708578283fd5b61371489838a0161358f565b94506060880135915080821115613729578283fd5b61373589838a0161358f565b9350608088013591508082111561374a578283fd5b5061375788828901613603565b9150509295509295909350565b600080600080600060a0868803121561377b578081fd5b61378486613573565b945061379260208701613573565b93506040860135925060608601359150608086013567ffffffffffffffff8111156137bb578182fd5b61375788828901613603565b600080604083850312156137d9578182fd5b6137e283613573565b915060208301356137f281614083565b809150509250929050565b6000806040838503121561380f578182fd5b61381883613573565b946020939093013593505050565b60008060408385031215613838578182fd5b823567ffffffffffffffff8082111561384f578384fd5b818501915085601f830112613862578384fd5b8135602061386f82613ed7565b60405161387c8282613f6d565b8381528281019150858301600585901b870184018b101561389b578889fd5b8896505b848710156138c4576138b081613573565b83526001969096019591830191830161389f565b50965050860135925050808211156138da578283fd5b506138e78582860161358f565b9150509250929050565b600060208284031215613902578081fd5b8151612c5181614083565b60006020828403121561391e578081fd5b8135612c5181614091565b60006020828403121561393a578081fd5b8151612c5181614091565b600060208284031215613956578081fd5b813567ffffffffffffffff81111561396c578182fd5b61397884828501613603565b949350505050565b60008060408385031215613992578182fd5b823567ffffffffffffffff8111156139a8578283fd5b6139b485828601613603565b95602094909401359450505050565b6000602082840312156139d4578081fd5b5035919050565b6000602082840312156139ec578081fd5b5051919050565b60008060408385031215613a05578182fd5b50508035926020909101359150565b6000815180845260208085019450808401835b83811015613a4357815187529582019590820190600101613a27565b509495945050505050565b60008151808452815b81811015613a7357602081850181015186830182015201613a57565b81811115613a845782602083870101525b50601f01601f19169290920160200192915050565b60028110613ab757634e487b7160e01b600052602160045260246000fd5b9052565b6001600160a01b0386811682528516602082015260a060408201819052600090613ae790830186613a14565b8281036060840152613af98186613a14565b90508281036080840152613b0d8185613a4e565b98975050505050505050565b6001600160a01b03868116825285166020820152604081018490526060810183905260a060808201819052600090613b5390830184613a4e565b979650505050505050565b6001600160a01b038316815260406020820181905260009061397890830184613a4e565b602081526000612c516020830184613a14565b604081526000613ba86040830185613a14565b8281036020840152613bba8185613a14565b95945050505050565b602081526000612c516020830184613a4e565b604081526000613be96040830185613a4e565b90508260208301529392505050565b60208082526028908201527f455243313135353a204552433131353552656365697665722072656a656374656040820152676420746f6b656e7360c01b606082015260800190565b602080825260149082015273021b0b6b830b4b3b71034b990333ab73232b217160651b604082015260600190565b602080825260149082015273027b93232b91034b99031b7b6b83632ba32b217160651b604082015260600190565b602080825260159082015274021b0b6b830b4b3b7103737ba10333ab73232b2171605d1b604082015260600190565b60208082526025908201527f455243313135353a207472616e7366657220746f20746865207a65726f206164604082015264647265737360d81b606082015260800190565b6020808252602a908201527f455243313135353a20696e73756666696369656e742062616c616e636520666f60408201526939103a3930b739b332b960b11b606082015260800190565b6020808252818101527f4f776e61626c653a2063616c6c6572206973206e6f7420746865206f776e6572604082015260600190565b602080825260149082015273021b0b6b830b4b3b71034b99031b637b9b2b217160651b604082015260600190565b6020808252600c908201526b027379039bab1b41034b217160a51b604082015260600190565b6020808252601f908201527f436f756c64206e6f74207472616e7366657220636f6c6c61746572616c2e2000604082015260600190565b8381526001600160a01b0383166020820152606060408201819052600090613bba90830184613a4e565b85815260a08101613e586020830187613a99565b604082019490945260608101929092526001600160a01b031660809091015292915050565b86815260c08101613e916020830188613a99565b6040820195909552606081019390935290151560808301526001600160a01b031660a09091015292915050565b8281526040602082015260006139786040830184613a4e565b600067ffffffffffffffff821115613ef157613ef1613fcb565b5060051b60200190565b60008219821115613f0e57613f0e613fb5565b500190565b6000816000190483118215151615613f2d57613f2d613fb5565b500290565b600181811c90821680613f4657607f821691505b60208210811415613f6757634e487b7160e01b600052602260045260246000fd5b50919050565b601f8201601f1916810167ffffffffffffffff81118282101715613f9357613f93613fcb565b6040525050565b6000600019821415613fae57613fae613fb5565b5060010190565b634e487b7160e01b600052601160045260246000fd5b634e487b7160e01b600052604160045260246000fd5b600060033d1115613ff657600481823e5160e01c5b90565b600060443d10156140075790565b6040516003193d81016004833e81513d67ffffffffffffffff816024840111818411171561403757505050505090565b828501915081518181111561404f5750505050505090565b843d87010160208285010111156140695750505050505090565b61407860208286010187613f6d565b509095945050505050565b8015158114612ab257600080fd5b6001600160e01b031981168114612ab257600080fdfea26469706673582212204ff3a48cc9e2b29fb510e02330d52d834705fc55fd4d552ddd2e768f36770c0464736f6c63430008040033",
  "linkReferences": {},
  "deployedLinkReferences": {}
}