{
  "_format": "hh-sol-artifact-1",
  "contractName": "CampaignBase",
  "sourceName": "contracts/CampaignBase.sol",
  "abi": [
    {
      "inputs": [
        {
          "internalType": "contract ERC20",
          "name": "_usdc_contract",
          "type": "address"
        },
        {
          "internalType": "address",
          "name": "creator",
          "type": "address"
        },
        {
          "internalType": "string",
          "name": "_uri",
          "type": "string"
        },
        {
          "internalType": "uint256",
          "name": "number_of_days",
          "type": "uint256"
        },
        {
          "internalType": "string",
          "name": "_title",
          "type": "string"
        },
        {
          "internalType": "string",
          "name": "_image_url",
          "type": "string"
        }
      ],
      "stateMutability": "nonpayable",
      "type": "constructor"
    },
    {
      "anonymous": false,
      "inputs": [
        {
          "indexed": true,
          "internalType": "address",
          "name": "account",
          "type": "address"
        },
        {
          "indexed": true,
          "internalType": "address",
          "name": "operator",
          "type": "address"
        },
        {
          "indexed": false,
          "internalType": "bool",
          "name": "approved",
          "type": "bool"
        }
      ],
      "name": "ApprovalForAll",
      "type": "event"
    },
    {
      "anonymous": false,
      "inputs": [
        {
          "indexed": false,
          "internalType": "address",
          "name": "owner",
          "type": "address"
        },
        {
          "indexed": false,
          "internalType": "uint256",
          "name": "amount",
          "type": "uint256"
        }
      ],
      "name": "CollateralDeposited",
      "type": "event"
    },
    {
      "anonymous": false,
      "inputs": [
        {
          "indexed": false,
          "internalType": "uint256",
          "name": "id",
          "type": "uint256"
        },
        {
          "indexed": false,
          "internalType": "address",
          "name": "commentor",
          "type": "address"
        },
        {
          "indexed": false,
          "internalType": "string",
          "name": "content",
          "type": "string"
        }
      ],
      "name": "CommentAdded",
      "type": "event"
    },
    {
      "anonymous": false,
      "inputs": [
        {
          "indexed": false,
          "internalType": "address",
          "name": "sender",
          "type": "address"
        },
        {
          "indexed": false,
          "internalType": "uint256",
          "name": "value",
          "type": "uint256"
        },
        {
          "indexed": false,
          "internalType": "uint256",
          "name": "funding_balance",
          "type": "uint256"
        }
      ],
      "name": "Donated",
      "type": "event"
    },
    {
      "anonymous": false,
      "inputs": [
        {
          "indexed": false,
          "internalType": "uint256",
          "name": "order_id",
          "type": "uint256"
        },
        {
          "indexed": false,
          "internalType": "address",
          "name": "taker",
          "type": "address"
        }
      ],
      "name": "OrderCalled",
      "type": "event"
    },
    {
      "anonymous": false,
      "inputs": [
        {
          "indexed": false,
          "internalType": "uint256",
          "name": "order_id",
          "type": "uint256"
        }
      ],
      "name": "OrderCanceled",
      "type": "event"
    },
    {
      "anonymous": false,
      "inputs": [
        {
          "indexed": false,
          "internalType": "uint256",
          "name": "order_id",
          "type": "uint256"
        },
        {
          "indexed": false,
          "internalType": "enum ERC1155Dex.OrderType",
          "name": "order_type",
          "type": "uint8"
        },
        {
          "indexed": false,
          "internalType": "uint256",
          "name": "nft_id",
          "type": "uint256"
        },
        {
          "indexed": false,
          "internalType": "uint256",
          "name": "price",
          "type": "uint256"
        },
        {
          "indexed": false,
          "internalType": "address",
          "name": "maker",
          "type": "address"
        }
      ],
      "name": "OrderPosted",
      "type": "event"
    },
    {
      "anonymous": false,
      "inputs": [
        {
          "indexed": true,
          "internalType": "address",
          "name": "previousOwner",
          "type": "address"
        },
        {
          "indexed": true,
          "internalType": "address",
          "name": "newOwner",
          "type": "address"
        }
      ],
      "name": "OwnershipTransferred",
      "type": "event"
    },
    {
      "anonymous": false,
      "inputs": [
        {
          "indexed": false,
          "internalType": "address",
          "name": "sender",
          "type": "address"
        },
        {
          "indexed": false,
          "internalType": "uint256",
          "name": "id",
          "type": "uint256"
        },
        {
          "indexed": false,
          "internalType": "uint256",
          "name": "amount",
          "type": "uint256"
        }
      ],
      "name": "Refunded",
      "type": "event"
    },
    {
      "anonymous": false,
      "inputs": [
        {
          "indexed": true,
          "internalType": "address",
          "name": "operator",
          "type": "address"
        },
        {
          "indexed": true,
          "internalType": "address",
          "name": "from",
          "type": "address"
        },
        {
          "indexed": true,
          "internalType": "address",
          "name": "to",
          "type": "address"
        },
        {
          "indexed": false,
          "internalType": "uint256[]",
          "name": "ids",
          "type": "uint256[]"
        },
        {
          "indexed": false,
          "internalType": "uint256[]",
          "name": "values",
          "type": "uint256[]"
        }
      ],
      "name": "TransferBatch",
      "type": "event"
    },
    {
      "anonymous": false,
      "inputs": [
        {
          "indexed": true,
          "internalType": "address",
          "name": "operator",
          "type": "address"
        },
        {
          "indexed": true,
          "internalType": "address",
          "name": "from",
          "type": "address"
        },
        {
          "indexed": true,
          "internalType": "address",
          "name": "to",
          "type": "address"
        },
        {
          "indexed": false,
          "internalType": "uint256",
          "name": "id",
          "type": "uint256"
        },
        {
          "indexed": false,
          "internalType": "uint256",
          "name": "value",
          "type": "uint256"
        }
      ],
      "name": "TransferSingle",
      "type": "event"
    },
    {
      "anonymous": false,
      "inputs": [
        {
          "indexed": false,
          "internalType": "string",
          "name": "value",
          "type": "string"
        },
        {
          "indexed": true,
          "internalType": "uint256",
          "name": "id",
          "type": "uint256"
        }
      ],
      "name": "URI",
      "type": "event"
    },
    {
      "anonymous": false,
      "inputs": [
        {
          "indexed": false,
          "internalType": "uint256",
          "name": "id",
          "type": "uint256"
        },
        {
          "indexed": false,
          "internalType": "string",
          "name": "content",
          "type": "string"
        }
      ],
      "name": "UpdateAdded",
      "type": "event"
    },
    {
      "anonymous": false,
      "inputs": [
        {
          "indexed": false,
          "internalType": "address",
          "name": "sender",
          "type": "address"
        },
        {
          "indexed": false,
          "internalType": "uint256",
          "name": "pool_balance",
          "type": "uint256"
        }
      ],
      "name": "Withdrawn",
      "type": "event"
    },
    {
      "stateMutability": "payable",
      "type": "fallback"
    },
    {
      "inputs": [],
      "name": "MIN_PRICE",
      "outputs": [
        {
          "internalType": "uint256",
          "name": "",
          "type": "uint256"
        }
      ],
      "stateMutability": "view",
      "type": "function"
    },
    {
      "inputs": [
        {
          "internalType": "string",
          "name": "content",
          "type": "string"
        }
      ],
      "name": "add_comment",
      "outputs": [],
      "stateMutability": "nonpayable",
      "type": "function"
    },
    {
      "inputs": [
        {
          "internalType": "string",
          "name": "content",
          "type": "string"
        }
      ],
      "name": "add_update",
      "outputs": [],
      "stateMutability": "nonpayable",
      "type": "function"
    },
    {
      "inputs": [],
      "name": "amount_count",
      "outputs": [
        {
          "internalType": "uint256",
          "name": "",
          "type": "uint256"
        }
      ],
      "stateMutability": "view",
      "type": "function"
    },
    {
      "inputs": [
        {
          "internalType": "address",
          "name": "account",
          "type": "address"
        },
        {
          "internalType": "uint256",
          "name": "id",
          "type": "uint256"
        }
      ],
      "name": "balanceOf",
      "outputs": [
        {
          "internalType": "uint256",
          "name": "",
          "type": "uint256"
        }
      ],
      "stateMutability": "view",
      "type": "function"
    },
    {
      "inputs": [
        {
          "internalType": "address[]",
          "name": "accounts",
          "type": "address[]"
        },
        {
          "internalType": "uint256[]",
          "name": "ids",
          "type": "uint256[]"
        }
      ],
      "name": "balanceOfBatch",
      "outputs": [
        {
          "internalType": "uint256[]",
          "name": "",
          "type": "uint256[]"
        }
      ],
      "stateMutability": "view",
      "type": "function"
    },
    {
      "inputs": [
        {
          "internalType": "uint256",
          "name": "order_id",
          "type": "uint256"
        }
      ],
      "name": "call_ask",
      "outputs": [],
      "stateMutability": "payable",
      "type": "function"
    },
    {
      "inputs": [
        {
          "internalType": "uint256",
          "name": "order_id",
          "type": "uint256"
        }
      ],
      "name": "call_bid",
      "outputs": [],
      "stateMutability": "payable",
      "type": "function"
    },
    {
      "inputs": [
        {
          "internalType": "uint256",
          "name": "order_id",
          "type": "uint256"
        }
      ],
      "name": "cancel_ask",
      "outputs": [],
      "stateMutability": "nonpayable",
      "type": "function"
    },
    {
      "inputs": [
        {
          "internalType": "uint256",
          "name": "order_id",
          "type": "uint256"
        }
      ],
      "name": "cancel_bid",
      "outputs": [],
      "stateMutability": "nonpayable",
      "type": "function"
    },
    {
      "inputs": [],
      "name": "claimed_count",
      "outputs": [
        {
          "internalType": "uint256",
          "name": "",
          "type": "uint256"
        }
      ],
      "stateMutability": "view",
      "type": "function"
    },
    {
      "inputs": [],
      "name": "comment_count",
      "outputs": [
        {
          "internalType": "uint256",
          "name": "",
          "type": "uint256"
        }
      ],
      "stateMutability": "view",
      "type": "function"
    },
    {
      "inputs": [
        {
          "internalType": "uint256",
          "name": "",
          "type": "uint256"
        }
      ],
      "name": "comments",
      "outputs": [
        {
          "internalType": "address",
          "name": "commentor",
          "type": "address"
        },
        {
          "internalType": "string",
          "name": "content",
          "type": "string"
        }
      ],
      "stateMutability": "view",
      "type": "function"
    },
    {
      "inputs": [],
      "name": "deadline",
      "outputs": [
        {
          "internalType": "uint256",
          "name": "",
          "type": "uint256"
        }
      ],
      "stateMutability": "view",
      "type": "function"
    },
    {
      "inputs": [],
      "name": "funding_balance",
      "outputs": [
        {
          "internalType": "uint256",
          "name": "",
          "type": "uint256"
        }
      ],
      "stateMutability": "view",
      "type": "function"
    },
    {
      "inputs": [],
      "name": "funding_goal",
      "outputs": [
        {
          "internalType": "uint256",
          "name": "",
          "type": "uint256"
        }
      ],
      "stateMutability": "view",
      "type": "function"
    },
    {
      "inputs": [
        {
          "internalType": "uint256",
          "name": "comment_id",
          "type": "uint256"
        }
      ],
      "name": "get_comment",
      "outputs": [
        {
          "internalType": "address",
          "name": "",
          "type": "address"
        },
        {
          "internalType": "string",
          "name": "",
          "type": "string"
        }
      ],
      "stateMutability": "view",
      "type": "function"
    },
    {
      "inputs": [
        {
          "internalType": "uint256",
          "name": "update_id",
          "type": "uint256"
        }
      ],
      "name": "get_update",
      "outputs": [
        {
          "internalType": "string",
          "name": "",
          "type": "string"
        },
        {
          "internalType": "uint256",
          "name": "",
          "type": "uint256"
        }
      ],
      "stateMutability": "view",
      "type": "function"
    },
    {
      "inputs": [
        {
          "internalType": "uint256",
          "name": "",
          "type": "uint256"
        }
      ],
      "name": "ids",
      "outputs": [
        {
          "internalType": "uint256",
          "name": "",
          "type": "uint256"
        }
      ],
      "stateMutability": "view",
      "type": "function"
    },
    {
      "inputs": [],
      "name": "image_url",
      "outputs": [
        {
          "internalType": "string",
          "name": "",
          "type": "string"
        }
      ],
      "stateMutability": "view",
      "type": "function"
    },
    {
      "inputs": [
        {
          "internalType": "address",
          "name": "account",
          "type": "address"
        },
        {
          "internalType": "address",
          "name": "operator",
          "type": "address"
        }
      ],
      "name": "isApprovedForAll",
      "outputs": [
        {
          "internalType": "bool",
          "name": "",
          "type": "bool"
        }
      ],
      "stateMutability": "view",
      "type": "function"
    },
    {
      "inputs": [],
      "name": "is_deposited",
      "outputs": [
        {
          "internalType": "bool",
          "name": "",
          "type": "bool"
        }
      ],
      "stateMutability": "view",
      "type": "function"
    },
    {
      "inputs": [],
      "name": "is_funded",
      "outputs": [
        {
          "internalType": "bool",
          "name": "",
          "type": "bool"
        }
      ],
      "stateMutability": "view",
      "type": "function"
    },
    {
      "inputs": [],
      "name": "order_count",
      "outputs": [
        {
          "internalType": "uint256",
          "name": "",
          "type": "uint256"
        }
      ],
      "stateMutability": "view",
      "type": "function"
    },
    {
      "inputs": [
        {
          "internalType": "uint256",
          "name": "",
          "type": "uint256"
        }
      ],
      "name": "orders",
      "outputs": [
        {
          "internalType": "uint256",
          "name": "order_id",
          "type": "uint256"
        },
        {
          "internalType": "enum ERC1155Dex.OrderType",
          "name": "order_type",
          "type": "uint8"
        },
        {
          "internalType": "uint256",
          "name": "nft_id",
          "type": "uint256"
        },
        {
          "internalType": "uint256",
          "name": "price",
          "type": "uint256"
        },
        {
          "internalType": "bool",
          "name": "completed",
          "type": "bool"
        },
        {
          "internalType": "address",
          "name": "maker",
          "type": "address"
        }
      ],
      "stateMutability": "view",
      "type": "function"
    },
    {
      "inputs": [],
      "name": "owner",
      "outputs": [
        {
          "internalType": "address",
          "name": "",
          "type": "address"
        }
      ],
      "stateMutability": "view",
      "type": "function"
    },
    {
      "inputs": [
        {
          "internalType": "uint256",
          "name": "nft_id",
          "type": "uint256"
        },
        {
          "internalType": "uint256",
          "name": "price",
          "type": "uint256"
        }
      ],
      "name": "post_ask",
      "outputs": [
        {
          "internalType": "uint256",
          "name": "order_id",
          "type": "uint256"
        }
      ],
      "stateMutability": "nonpayable",
      "type": "function"
    },
    {
      "inputs": [
        {
          "internalType": "uint256",
          "name": "nft_id",
          "type": "uint256"
        }
      ],
      "name": "post_bid",
      "outputs": [
        {
          "internalType": "uint256",
          "name": "order_id",
          "type": "uint256"
        }
      ],
      "stateMutability": "payable",
      "type": "function"
    },
    {
      "inputs": [],
      "name": "refund_count",
      "outputs": [
        {
          "internalType": "uint256",
          "name": "",
          "type": "uint256"
        }
      ],
      "stateMutability": "view",
      "type": "function"
    },
    {
      "inputs": [],
      "name": "renounceOwnership",
      "outputs": [],
      "stateMutability": "nonpayable",
      "type": "function"
    },
    {
      "inputs": [
        {
          "internalType": "address",
          "name": "from",
          "type": "address"
        },
        {
          "internalType": "address",
          "name": "to",
          "type": "address"
        },
        {
          "internalType": "uint256[]",
          "name": "ids",
          "type": "uint256[]"
        },
        {
          "internalType": "uint256[]",
          "name": "amounts",
          "type": "uint256[]"
        },
        {
          "internalType": "bytes",
          "name": "data",
          "type": "bytes"
        }
      ],
      "name": "safeBatchTransferFrom",
      "outputs": [],
      "stateMutability": "nonpayable",
      "type": "function"
    },
    {
      "inputs": [
        {
          "internalType": "address",
          "name": "from",
          "type": "address"
        },
        {
          "internalType": "address",
          "name": "to",
          "type": "address"
        },
        {
          "internalType": "uint256",
          "name": "id",
          "type": "uint256"
        },
        {
          "internalType": "uint256",
          "name": "amount",
          "type": "uint256"
        },
        {
          "internalType": "bytes",
          "name": "data",
          "type": "bytes"
        }
      ],
      "name": "safeTransferFrom",
      "outputs": [],
      "stateMutability": "nonpayable",
      "type": "function"
    },
    {
      "inputs": [
        {
          "internalType": "address",
          "name": "operator",
          "type": "address"
        },
        {
          "internalType": "bool",
          "name": "approved",
          "type": "bool"
        }
      ],
      "name": "setApprovalForAll",
      "outputs": [],
      "stateMutability": "nonpayable",
      "type": "function"
    },
    {
      "inputs": [
        {
          "internalType": "bytes4",
          "name": "interfaceId",
          "type": "bytes4"
        }
      ],
      "name": "supportsInterface",
      "outputs": [
        {
          "internalType": "bool",
          "name": "",
          "type": "bool"
        }
      ],
      "stateMutability": "view",
      "type": "function"
    },
    {
      "inputs": [],
      "name": "title",
      "outputs": [
        {
          "internalType": "string",
          "name": "",
          "type": "string"
        }
      ],
      "stateMutability": "view",
      "type": "function"
    },
    {
      "inputs": [
        {
          "internalType": "address",
          "name": "newOwner",
          "type": "address"
        }
      ],
      "name": "transferOwnership",
      "outputs": [],
      "stateMutability": "nonpayable",
      "type": "function"
    },
    {
      "inputs": [],
      "name": "update_count",
      "outputs": [
        {
          "internalType": "uint256",
          "name": "",
          "type": "uint256"
        }
      ],
      "stateMutability": "view",
      "type": "function"
    },
    {
      "inputs": [
        {
          "internalType": "uint256",
          "name": "",
          "type": "uint256"
        }
      ],
      "name": "updates",
      "outputs": [
        {
          "internalType": "uint256",
          "name": "timestamp",
          "type": "uint256"
        },
        {
          "internalType": "string",
          "name": "content",
          "type": "string"
        }
      ],
      "stateMutability": "view",
      "type": "function"
    },
    {
      "inputs": [
        {
          "internalType": "uint256",
          "name": "",
          "type": "uint256"
        }
      ],
      "name": "uri",
      "outputs": [
        {
          "internalType": "string",
          "name": "",
          "type": "string"
        }
      ],
      "stateMutability": "view",
      "type": "function"
    },
    {
      "inputs": [],
      "name": "withdraw",
      "outputs": [],
      "stateMutability": "nonpayable",
      "type": "function"
    },
    {
      "stateMutability": "payable",
      "type": "receive"
    }
  ],
  "bytecode": "0x6080604052600060048190556006805460ff199081169091556009829055600e82905560108290556011919091556012805490911690553480156200004357600080fd5b50604051620038db380380620038db833981016040819052620000669162000403565b83620000768462015180620004df565b620000829042620004c4565b816200008e8162000160565b50600555506200009e3362000179565b600083118015620000b05750605a8311155b620001025760405162461bcd60e51b815260206004820152601660248201527f496d70726f7065722064617973206c656e6774682e200000000000000000000060448201526064015b60405180910390fd5b6200010d85620001d3565b600880546001600160a01b0319166001600160a01b03881617905581516200013d906013906020850190620002aa565b50805162000153906014906020840190620002aa565b5050505050505062000580565b805162000175906002906020840190620002aa565b5050565b600680546001600160a01b03838116610100818102610100600160a81b031985161790945560405193909204169182907f8be0079c531659141344cd1fd0a4f28419497f9722a3daafe3b4186f6b6457e090600090a35050565b6006546001600160a01b03610100909104163314620002355760405162461bcd60e51b815260206004820181905260248201527f4f776e61626c653a2063616c6c6572206973206e6f7420746865206f776e65726044820152606401620000f9565b6001600160a01b0381166200029c5760405162461bcd60e51b815260206004820152602660248201527f4f776e61626c653a206e6577206f776e657220697320746865207a65726f206160448201526564647265737360d01b6064820152608401620000f9565b620002a78162000179565b50565b828054620002b89062000501565b90600052602060002090601f016020900481019282620002dc576000855562000327565b82601f10620002f757805160ff191683800117855562000327565b8280016001018555821562000327579182015b82811115620003275782518255916020019190600101906200030a565b506200033592915062000339565b5090565b5b808211156200033557600081556001016200033a565b600082601f83011262000361578081fd5b81516001600160401b03808211156200037e576200037e62000554565b604051601f8301601f19908116603f01168101908282118183101715620003a957620003a962000554565b81604052838152602092508683858801011115620003c5578485fd5b8491505b83821015620003e85785820183015181830184015290820190620003c9565b83821115620003f957848385830101525b9695505050505050565b60008060008060008060c087890312156200041c578182fd5b865162000429816200056a565b60208801519096506200043c816200056a565b60408801519095506001600160401b038082111562000459578384fd5b620004678a838b0162000350565b955060608901519450608089015191508082111562000484578384fd5b620004928a838b0162000350565b935060a0890151915080821115620004a8578283fd5b50620004b789828a0162000350565b9150509295509295509295565b60008219821115620004da57620004da6200053e565b500190565b6000816000190483118215151615620004fc57620004fc6200053e565b500290565b600181811c908216806200051657607f821691505b602082108114156200053857634e487b7160e01b600052602260045260246000fd5b50919050565b634e487b7160e01b600052601160045260246000fd5b634e487b7160e01b600052604160045260246000fd5b6001600160a01b0381168114620002a757600080fd5b61334b80620005906000396000f3fe60806040526004361061023e5760003560e01c8063824f4baf1161012e578063d1460724116100ab578063f2fde38b1161006f578063f2fde38b14610721578063f67719d114610741578063fac333ac14610757578063ffc5669614610777578063ffedfa2f1461078d57610279565b8063d14607241461064a578063d747a1af1461066a578063d760208f1461068a578063e985e9c5146106b8578063f242432a1461070157610279565b8063ad9f20a6116100f2578063ad9f20a6146105ca578063ae64d26d146105e0578063b41dc1a7146105f6578063b4c2f72714610609578063cc0f386b1461063757610279565b8063824f4baf146104ff5780638da5cb5b146105145780638ebb4c151461054a578063a22cb46514610578578063a85c38ef1461059857610279565b80633ccfd60b116101bc5780635629629711610180578063562962971461047a5780636090814914610494578063715018a6146104b457806378326135146104c95780637a09bbf7146104df57610279565b80633ccfd60b146103f35780634a79d50c146104085780634b6026bb1461041d5780634e1273f414610437578063541ffbdb1461046457610279565b80632996c165116102035780632996c1651461037157806329dcb0cf146103915780632a1f1199146103a75780632b9e66ee146103bd5780632eb2c2d6146103d357610279565b8062fdd58e146102ab57806301ffc9a7146102de578063045ca5881461030e5780630e89341c146103245780631e67a4ec1461035157610279565b366102795734156102775760405133903480156108fc02916000818181858888f19350505050158015610275573d6000803e3d6000fd5b505b005b34156102775760405133903480156108fc02916000818181858888f19350505050158015610275573d6000803e3d6000fd5b3480156102b757600080fd5b506102cb6102c6366004612b3f565b6107a0565b6040519081526020015b60405180910390f35b3480156102ea57600080fd5b506102fe6102f9366004612c4f565b610837565b60405190151581526020016102d5565b34801561031a57600080fd5b506102cb60115481565b34801561033057600080fd5b5061034461033f366004612cd5565b610889565b6040516102d59190612ebd565b34801561035d57600080fd5b5061027761036c366004612c87565b61091d565b34801561037d57600080fd5b5061027761038c366004612cd5565b610a16565b34801561039d57600080fd5b506102cb60055481565b3480156103b357600080fd5b506102cb60045481565b3480156103c957600080fd5b506102cb600c5481565b3480156103df57600080fd5b506102776103ee366004612a00565b610b3a565b3480156103ff57600080fd5b50610277610bd1565b34801561041457600080fd5b50610344610dba565b34801561042957600080fd5b506006546102fe9060ff1681565b34801561044357600080fd5b50610457610452366004612b68565b610e48565b6040516102d59190612e7c565b34801561047057600080fd5b506102cb60105481565b34801561048657600080fd5b506012546102fe9060ff1681565b3480156104a057600080fd5b506102776104af366004612c87565b610faa565b3480156104c057600080fd5b506102776110a9565b3480156104d557600080fd5b506102cb600a5481565b3480156104eb57600080fd5b506102cb6104fa366004612ced565b6110e5565b34801561050b57600080fd5b50610344611307565b34801561052057600080fd5b5060065461010090046001600160a01b03166040516001600160a01b0390911681526020016102d5565b34801561055657600080fd5b5061056a610565366004612cd5565b611314565b6040516102d5929190612e58565b34801561058457600080fd5b50610277610593366004612b09565b6113d6565b3480156105a457600080fd5b506105b86105b3366004612cd5565b6114ad565b6040516102d5969594939291906130eb565b3480156105d657600080fd5b506102cb6103e881565b3480156105ec57600080fd5b506102cb60095481565b610277610604366004612cd5565b611505565b34801561061557600080fd5b50610629610624366004612cd5565b61170b565b6040516102d592919061312c565b6102cb610645366004612cd5565b611740565b34801561065657600080fd5b5061056a610665366004612cd5565b611956565b34801561067657600080fd5b50610277610685366004612cd5565b611a7e565b34801561069657600080fd5b506106aa6106a5366004612cd5565b611ba7565b6040516102d5929190612ed0565b3480156106c457600080fd5b506102fe6106d33660046129ce565b6001600160a01b03918216600090815260016020908152604080832093909416825291909152205460ff1690565b34801561070d57600080fd5b5061027761071c366004612aa6565b611cc1565b34801561072d57600080fd5b5061027761073c3660046129b4565b611d48565b34801561074d57600080fd5b506102cb600b5481565b34801561076357600080fd5b506102cb610772366004612cd5565b611de9565b34801561078357600080fd5b506102cb600e5481565b61027761079b366004612cd5565b611e0a565b60006001600160a01b0383166108115760405162461bcd60e51b815260206004820152602b60248201527f455243313135353a2062616c616e636520717565727920666f7220746865207a60448201526a65726f206164647265737360a81b60648201526084015b60405180910390fd5b506000908152602081815260408083206001600160a01b03949094168352929052205490565b60006001600160e01b03198216636cdb3d1360e11b148061086857506001600160e01b031982166303a24d0760e21b145b8061088357506301ffc9a760e01b6001600160e01b03198316145b92915050565b606060028054610898906131a0565b80601f01602080910402602001604051908101604052809291908181526020018280546108c4906131a0565b80156109115780601f106108e657610100808354040283529160200191610911565b820191906000526020600020905b8154815290600101906020018083116108f457829003601f168201915b50505050509050919050565b604080518082019091523381526020808201838152600d8054600181018255600091909152835160029091027fd7b6990105719101dabeb77144f2a3385c8033acd3af97e9423a695e81ad1eb5810180546001600160a01b03939093166001600160a01b03199093169290921782559151805191936109c1937fd7b6990105719101dabeb77144f2a3385c8033acd3af97e9423a695e81ad1eb6019291019061280e565b5050600e80547fcc2d7dd2085ae6644799a42c0174adf9afc10a43f26db5eac3ddd1f96d1d64be92509060006109f683613208565b919050553383604051610a0b93929190613088565b60405180910390a150565b600060038281548110610a3957634e487b7160e01b600052603260045260246000fd5b60009182526020909120600590910201600481015490915060ff1615610a715760405162461bcd60e51b815260040161080890612f68565b60048101546001600160a01b03610100909104163314610acd5760405162461bcd60e51b815260206004820152601760248201527602cb7ba9030b932903737ba103a34329036b0b5b2b9171604d1b6044820152606401610808565b610aed338260020154600160405180602001604052806000815250611f79565b60048101805460ff191660011790556040517fc41f4ceb2938876c35e61b705e9d2f18a02c4a26ce5e049a6308a943d46851b390610b2e9084815260200190565b60405180910390a15050565b6001600160a01b038516331480610b565750610b5685336106d3565b610bbd5760405162461bcd60e51b815260206004820152603260248201527f455243313135353a207472616e736665722063616c6c6572206973206e6f74206044820152711bdddb995c881b9bdc88185c1c1c9bdd995960721b6064820152608401610808565b610bca8585858585612083565b5050505050565b6006546001600160a01b03610100909104163314610c015760405162461bcd60e51b815260040161080890613025565b600554421015610c485760405162461bcd60e51b8152602060048201526012602482015271021b0b6b830b4b3b71034b99037b832b717160751b6044820152606401610808565b60065460ff16610c925760405162461bcd60e51b8152602060048201526015602482015274021b0b6b830b4b3b7103737ba10333ab73232b2171605d1b6044820152606401610808565b600b54600090610ca390600261227c565b6000600b5560085460405163a9059cbb60e01b8152336004820152602481018390529192506001600160a01b03169063a9059cbb90604401602060405180830381600087803b158015610cf557600080fd5b505af1158015610d09573d6000803e3d6000fd5b505050506040513d601f19601f82011682018060405250810190610d2d9190612c33565b610d845760405162461bcd60e51b815260206004820152602260248201527f4572726f72206d616b696e672061207769746864726177207472616e73666572604482015261017160f51b6064820152608401610808565b60408051338152602081018390527f7084f5476618d8e60b11ef0d7d3f06914655adb8793e28ff7f018d4c76d505d59101610a0b565b60138054610dc7906131a0565b80601f0160208091040260200160405190810160405280929190818152602001828054610df3906131a0565b8015610e405780601f10610e1557610100808354040283529160200191610e40565b820191906000526020600020905b815481529060010190602001808311610e2357829003601f168201915b505050505081565b60608151835114610ead5760405162461bcd60e51b815260206004820152602960248201527f455243313135353a206163636f756e747320616e6420696473206c656e677468604482015268040dad2e6dac2e8c6d60bb1b6064820152608401610808565b6000835167ffffffffffffffff811115610ed757634e487b7160e01b600052604160045260246000fd5b604051908082528060200260200182016040528015610f00578160200160208202803683370190505b50905060005b8451811015610fa257610f67858281518110610f3257634e487b7160e01b600052603260045260246000fd5b6020026020010151858381518110610f5a57634e487b7160e01b600052603260045260246000fd5b60200260200101516107a0565b828281518110610f8757634e487b7160e01b600052603260045260246000fd5b6020908102919091010152610f9b81613208565b9050610f06565b509392505050565b6006546001600160a01b03610100909104163314610fda5760405162461bcd60e51b815260040161080890613025565b604080518082019091524281526020808201838152600f8054600181018255600091909152835160029091027f8d1108e10bcb7c27dddfc02ed9d693a074039d026cf4ea4240b40f7d581ac8028101918255915180519193611061937f8d1108e10bcb7c27dddfc02ed9d693a074039d026cf4ea4240b40f7d581ac803019291019061280e565b5050601080547fc76497df999dfea988f5a0f07e8897692c042cc4ed233e65b817365c692bbb0f925090600061109683613208565b9190505582604051610a0b92919061312c565b6006546001600160a01b036101009091041633146110d95760405162461bcd60e51b815260040161080890613025565b6110e3600061228f565b565b600060055442106111085760405162461bcd60e51b81526004016108089061305a565b60065460ff161561112b5760405162461bcd60e51b815260040161080890612f3a565b6103e882101561117d5760405162461bcd60e51b815260206004820152601c60248201527f5072696365206973206c657373207468616e206d696e696d616c2e20000000006044820152606401610808565b611189338460016122e9565b506004546040805160c081018252828152600160208201818152928201869052606082018590526000608083018190523360a08401526003805480840182559152825160059091027fc2575a0e9e593c00f959f8c92f12db2869c3395a3b0502d05e2516446f71f85b810191825593517fc2575a0e9e593c00f959f8c92f12db2869c3395a3b0502d05e2516446f71f85c9094018054939491939192909160ff191690838181111561124b57634e487b7160e01b600052602160045260246000fd5b0217905550604082015160028201556060820151600382015560808201516004918201805460a0909401516001600160a01b031661010002610100600160a81b0319921515929092166001600160a81b0319909416939093171790915580549060006112b683613208565b91905055507f62317d9a57a5daf76ddf50f27c2f5e8ee74ec45e74c658ee168747579d76a18581600185856112e83390565b6040516112f99594939291906130b2565b60405180910390a192915050565b60148054610dc7906131a0565b600d818154811061132457600080fd5b6000918252602090912060029091020180546001820180546001600160a01b03909216935090611353906131a0565b80601f016020809104026020016040519081016040528092919081815260200182805461137f906131a0565b80156113cc5780601f106113a1576101008083540402835291602001916113cc565b820191906000526020600020905b8154815290600101906020018083116113af57829003601f168201915b5050505050905082565b336001600160a01b03831614156114415760405162461bcd60e51b815260206004820152602960248201527f455243313135353a2073657474696e6720617070726f76616c20737461747573604482015268103337b91039b2b63360b91b6064820152608401610808565b3360008181526001602090815260408083206001600160a01b03871680855290835292819020805460ff191686151590811790915590519081529192917f17307eab39ab6107e8899845ad3d59bd9653f200f220920489ca2b5937696c31910160405180910390a35050565b600381815481106114bd57600080fd5b60009182526020909120600590910201805460018201546002830154600384015460049094015492945060ff918216939092909181169061010090046001600160a01b031686565b60055442106115265760405162461bcd60e51b81526004016108089061305a565b60065460ff16156115495760405162461bcd60e51b815260040161080890612f3a565b60006003828154811061156c57634e487b7160e01b600052603260045260246000fd5b60009182526020909120600590910201600481015490915060ff16156115a45760405162461bcd60e51b815260040161080890612f68565b60048101546001600160a01b03610100909104163314156115fd5760405162461bcd60e51b815260206004820152601360248201527202cb7ba9030b932903a34329036b0b5b2b9171606d1b6044820152606401610808565b80600301543410156116515760405162461bcd60e51b815260206004820152601760248201527f4e6f7420656e6f756768206d6f6e65792073656e742e200000000000000000006044820152606401610808565b611671338260020154600160405180602001604052806000815250611f79565b600481015460038201546040516101009092046001600160a01b0316916108fc82150291906000818181858888f193505050501580156116b5573d6000803e3d6000fd5b5060048101805460ff191660011790557f2b5e8b63b9bdec78112f8183b2dacdb0a2c0f38f63d3bfc060172b603a9e5542826116ee3390565b604080519283526001600160a01b03909116602083015201610b2e565b600f818154811061171b57600080fd5b60009182526020909120600290910201805460018201805491935090611353906131a0565b600060055442106117635760405162461bcd60e51b81526004016108089061305a565b60065460ff16156117865760405162461bcd60e51b815260040161080890612f3a565b6103e83410156117d85760405162461bcd60e51b815260206004820152601c60248201527f5072696365206973206c657373207468616e206d696e696d616c2e20000000006044820152606401610808565b506004546040805160c081018252828152600060208201818152928201859052346060830152608082018190523360a0830152600380546001808201835591909252825160059092027fc2575a0e9e593c00f959f8c92f12db2869c3395a3b0502d05e2516446f71f85b810192835593517fc2575a0e9e593c00f959f8c92f12db2869c3395a3b0502d05e2516446f71f85c909401805493949293909160ff1990911690838181111561189b57634e487b7160e01b600052602160045260246000fd5b0217905550604082015160028201556060820151600382015560808201516004918201805460a0909401516001600160a01b031661010002610100600160a81b0319921515929092166001600160a81b03199094169390931717909155805490600061190683613208565b91905055507f62317d9a57a5daf76ddf50f27c2f5e8ee74ec45e74c658ee168747579d76a18581600084346119383390565b6040516119499594939291906130b2565b60405180910390a1919050565b60006060600e54831061199f5760405162461bcd60e51b8152602060048201526011602482015270027379039bab1b41031b7b6b6b2b73a171607d1b6044820152606401610808565b6000600d84815481106119c257634e487b7160e01b600052603260045260246000fd5b6000918252602090912060029091020180546001820180549293506001600160a01b039091169181906119f4906131a0565b80601f0160208091040260200160405190810160405280929190818152602001828054611a20906131a0565b8015611a6d5780601f10611a4257610100808354040283529160200191611a6d565b820191906000526020600020905b815481529060010190602001808311611a5057829003601f168201915b505050505090509250925050915091565b600060038281548110611aa157634e487b7160e01b600052603260045260246000fd5b60009182526020909120600590910201600481015490915060ff1615611ad95760405162461bcd60e51b815260040161080890612f68565b60048101546001600160a01b03610100909104163314611b355760405162461bcd60e51b815260206004820152601760248201527602cb7ba9030b932903737ba103a34329036b0b5b2b9171604d1b6044820152606401610808565b6003810154604051339180156108fc02916000818181858888f19350505050158015611b65573d6000803e3d6000fd5b5060048101805460ff191660011790556040517fc41f4ceb2938876c35e61b705e9d2f18a02c4a26ce5e049a6308a943d46851b390610b2e9084815260200190565b606060006010548310611bef5760405162461bcd60e51b815260206004820152601060248201526f027379039bab1b4103ab83230ba3297160851b6044820152606401610808565b6000600f8481548110611c1257634e487b7160e01b600052603260045260246000fd5b90600052602060002090600202019050806001018160000154818054611c37906131a0565b80601f0160208091040260200160405190810160405280929190818152602001828054611c63906131a0565b8015611cb05780601f10611c8557610100808354040283529160200191611cb0565b820191906000526020600020905b815481529060010190602001808311611c9357829003601f168201915b505050505091509250925050915091565b6001600160a01b038516331480611cdd5750611cdd85336106d3565b611d3b5760405162461bcd60e51b815260206004820152602960248201527f455243313135353a2063616c6c6572206973206e6f74206f776e6572206e6f7260448201526808185c1c1c9bdd995960ba1b6064820152608401610808565b610bca8585858585612463565b6006546001600160a01b03610100909104163314611d785760405162461bcd60e51b815260040161080890613025565b6001600160a01b038116611ddd5760405162461bcd60e51b815260206004820152602660248201527f4f776e61626c653a206e6577206f776e657220697320746865207a65726f206160448201526564647265737360d01b6064820152608401610808565b611de68161228f565b50565b60078181548110611df957600080fd5b600091825260209091200154905081565b6005544210611e2b5760405162461bcd60e51b81526004016108089061305a565b60065460ff1615611e4e5760405162461bcd60e51b815260040161080890612f3a565b600060038281548110611e7157634e487b7160e01b600052603260045260246000fd5b60009182526020909120600590910201600481015490915060ff1615611ea95760405162461bcd60e51b815260040161080890612f68565b60048101546001600160a01b0361010090910416331415611f025760405162461bcd60e51b815260206004820152601360248201527202cb7ba9030b932903a34329036b0b5b2b9171606d1b6044820152606401610808565b611f1233826002015460016122e9565b611f498160040160019054906101000a90046001600160a01b03168260020154600160405180602001604052806000815250611f79565b6003810154604051339180156108fc02916000818181858888f193505050501580156116b5573d6000803e3d6000fd5b6001600160a01b038416611fd95760405162461bcd60e51b815260206004820152602160248201527f455243313135353a206d696e7420746f20746865207a65726f206164647265736044820152607360f81b6064820152608401610808565b33611ff381600087611fea88612580565b610bca88612580565b6000848152602081815260408083206001600160a01b038916845290915281208054859290612023908490613169565b909155505060408051858152602081018590526001600160a01b0380881692600092918516917fc3d58168c5ae7397731d063d5bbf3d657854427343f4c083240f7aacaa2d0f62910160405180910390a4610bca816000878787876125d9565b81518351146120e55760405162461bcd60e51b815260206004820152602860248201527f455243313135353a2069647320616e6420616d6f756e7473206c656e677468206044820152670dad2e6dac2e8c6d60c31b6064820152608401610808565b6001600160a01b03841661210b5760405162461bcd60e51b815260040161080890612f96565b3360005b845181101561220e57600085828151811061213a57634e487b7160e01b600052603260045260246000fd5b60200260200101519050600085838151811061216657634e487b7160e01b600052603260045260246000fd5b602090810291909101810151600084815280835260408082206001600160a01b038e1683529093529190912054909150818110156121b65760405162461bcd60e51b815260040161080890612fdb565b6000838152602081815260408083206001600160a01b038e8116855292528083208585039055908b168252812080548492906121f3908490613169565b925050819055505050508061220790613208565b905061210f565b50846001600160a01b0316866001600160a01b0316826001600160a01b03167f4a39dc06d4c0dbc64b70af90fd698a233a518aa5d07e595d983b8c0526c8f7fb878760405161225e929190612e8f565b60405180910390a4612274818787878787612744565b505050505050565b60006122888284613181565b9392505050565b600680546001600160a01b03838116610100818102610100600160a81b031985161790945560405193909204169182907f8be0079c531659141344cd1fd0a4f28419497f9722a3daafe3b4186f6b6457e090600090a35050565b6001600160a01b03831661234b5760405162461bcd60e51b815260206004820152602360248201527f455243313135353a206275726e2066726f6d20746865207a65726f206164647260448201526265737360e81b6064820152608401610808565b3361237b8185600061235c87612580565b61236587612580565b5050604080516020810190915260009052505050565b6000838152602081815260408083206001600160a01b0388168452909152902054828110156123f85760405162461bcd60e51b8152602060048201526024808201527f455243313135353a206275726e20616d6f756e7420657863656564732062616c604482015263616e636560e01b6064820152608401610808565b6000848152602081815260408083206001600160a01b03898116808652918452828520888703905582518981529384018890529092908616917fc3d58168c5ae7397731d063d5bbf3d657854427343f4c083240f7aacaa2d0f62910160405180910390a45050505050565b6001600160a01b0384166124895760405162461bcd60e51b815260040161080890612f96565b33612499818787611fea88612580565b6000848152602081815260408083206001600160a01b038a168452909152902054838110156124da5760405162461bcd60e51b815260040161080890612fdb565b6000858152602081815260408083206001600160a01b038b8116855292528083208785039055908816825281208054869290612517908490613169565b909155505060408051868152602081018690526001600160a01b03808916928a821692918616917fc3d58168c5ae7397731d063d5bbf3d657854427343f4c083240f7aacaa2d0f62910160405180910390a46125778288888888886125d9565b50505050505050565b604080516001808252818301909252606091600091906020808301908036833701905050905082816000815181106125c857634e487b7160e01b600052603260045260246000fd5b602090810291909101015292915050565b6001600160a01b0384163b156122745760405163f23a6e6160e01b81526001600160a01b0385169063f23a6e619061261d9089908990889088908890600401612e13565b602060405180830381600087803b15801561263757600080fd5b505af1925050508015612667575060408051601f3d908101601f1916820190925261266491810190612c6b565b60015b6127145761267361324f565b806308c379a014156126ad5750612688613267565b8061269357506126af565b8060405162461bcd60e51b81526004016108089190612ebd565b505b60405162461bcd60e51b815260206004820152603460248201527f455243313135353a207472616e7366657220746f206e6f6e20455243313135356044820152732932b1b2b4bb32b91034b6b83632b6b2b73a32b960611b6064820152608401610808565b6001600160e01b0319811663f23a6e6160e01b146125775760405162461bcd60e51b815260040161080890612ef2565b6001600160a01b0384163b156122745760405163bc197c8160e01b81526001600160a01b0385169063bc197c81906127889089908990889088908890600401612db5565b602060405180830381600087803b1580156127a257600080fd5b505af19250505080156127d2575060408051601f3d908101601f191682019092526127cf91810190612c6b565b60015b6127de5761267361324f565b6001600160e01b0319811663bc197c8160e01b146125775760405162461bcd60e51b815260040161080890612ef2565b82805461281a906131a0565b90600052602060002090601f01602090048101928261283c5760008555612882565b82601f1061285557805160ff1916838001178555612882565b82800160010185558215612882579182015b82811115612882578251825591602001919060010190612867565b5061288e929150612892565b5090565b5b8082111561288e5760008155600101612893565b600067ffffffffffffffff8311156128c1576128c1613239565b6040516128d8601f8501601f1916602001826131db565b8091508381528484840111156128ed57600080fd5b83836020830137600060208583010152509392505050565b80356001600160a01b038116811461291c57600080fd5b919050565b600082601f830112612931578081fd5b8135602061293e82613145565b60405161294b82826131db565b8381528281019150858301600585901b8701840188101561296a578586fd5b855b858110156129885781358452928401929084019060010161296c565b5090979650505050505050565b600082601f8301126129a5578081fd5b612288838335602085016128a7565b6000602082840312156129c5578081fd5b61228882612905565b600080604083850312156129e0578081fd5b6129e983612905565b91506129f760208401612905565b90509250929050565b600080600080600060a08688031215612a17578081fd5b612a2086612905565b9450612a2e60208701612905565b9350604086013567ffffffffffffffff80821115612a4a578283fd5b612a5689838a01612921565b94506060880135915080821115612a6b578283fd5b612a7789838a01612921565b93506080880135915080821115612a8c578283fd5b50612a9988828901612995565b9150509295509295909350565b600080600080600060a08688031215612abd578081fd5b612ac686612905565b9450612ad460208701612905565b93506040860135925060608601359150608086013567ffffffffffffffff811115612afd578182fd5b612a9988828901612995565b60008060408385031215612b1b578182fd5b612b2483612905565b91506020830135612b34816132f1565b809150509250929050565b60008060408385031215612b51578182fd5b612b5a83612905565b946020939093013593505050565b60008060408385031215612b7a578182fd5b823567ffffffffffffffff80821115612b91578384fd5b818501915085601f830112612ba4578384fd5b81356020612bb182613145565b604051612bbe82826131db565b8381528281019150858301600585901b870184018b1015612bdd578889fd5b8896505b84871015612c0657612bf281612905565b835260019690960195918301918301612be1565b5096505086013592505080821115612c1c578283fd5b50612c2985828601612921565b9150509250929050565b600060208284031215612c44578081fd5b8151612288816132f1565b600060208284031215612c60578081fd5b8135612288816132ff565b600060208284031215612c7c578081fd5b8151612288816132ff565b600060208284031215612c98578081fd5b813567ffffffffffffffff811115612cae578182fd5b8201601f81018413612cbe578182fd5b612ccd848235602084016128a7565b949350505050565b600060208284031215612ce6578081fd5b5035919050565b60008060408385031215612cff578182fd5b50508035926020909101359150565b6000815180845260208085019450808401835b83811015612d3d57815187529582019590820190600101612d21565b509495945050505050565b60008151808452815b81811015612d6d57602081850181015186830182015201612d51565b81811115612d7e5782602083870101525b50601f01601f19169290920160200192915050565b60028110612db157634e487b7160e01b600052602160045260246000fd5b9052565b6001600160a01b0386811682528516602082015260a060408201819052600090612de190830186612d0e565b8281036060840152612df38186612d0e565b90508281036080840152612e078185612d48565b98975050505050505050565b6001600160a01b03868116825285166020820152604081018490526060810183905260a060808201819052600090612e4d90830184612d48565b979650505050505050565b6001600160a01b0383168152604060208201819052600090612ccd90830184612d48565b6020815260006122886020830184612d0e565b604081526000612ea26040830185612d0e565b8281036020840152612eb48185612d0e565b95945050505050565b6020815260006122886020830184612d48565b604081526000612ee36040830185612d48565b90508260208301529392505050565b60208082526028908201527f455243313135353a204552433131353552656365697665722072656a656374656040820152676420746f6b656e7360c01b606082015260800190565b602080825260149082015273021b0b6b830b4b3b71034b990333ab73232b217160651b604082015260600190565b602080825260149082015273027b93232b91034b99031b7b6b83632ba32b217160651b604082015260600190565b60208082526025908201527f455243313135353a207472616e7366657220746f20746865207a65726f206164604082015264647265737360d81b606082015260800190565b6020808252602a908201527f455243313135353a20696e73756666696369656e742062616c616e636520666f60408201526939103a3930b739b332b960b11b606082015260800190565b6020808252818101527f4f776e61626c653a2063616c6c6572206973206e6f7420746865206f776e6572604082015260600190565b602080825260149082015273021b0b6b830b4b3b71034b99031b637b9b2b217160651b604082015260600190565b8381526001600160a01b0383166020820152606060408201819052600090612eb490830184612d48565b85815260a081016130c66020830187612d93565b604082019490945260608101929092526001600160a01b031660809091015292915050565b86815260c081016130ff6020830188612d93565b6040820195909552606081019390935290151560808301526001600160a01b031660a09091015292915050565b828152604060208201526000612ccd6040830184612d48565b600067ffffffffffffffff82111561315f5761315f613239565b5060051b60200190565b6000821982111561317c5761317c613223565b500190565b600081600019048311821515161561319b5761319b613223565b500290565b600181811c908216806131b457607f821691505b602082108114156131d557634e487b7160e01b600052602260045260246000fd5b50919050565b601f8201601f1916810167ffffffffffffffff8111828210171561320157613201613239565b6040525050565b600060001982141561321c5761321c613223565b5060010190565b634e487b7160e01b600052601160045260246000fd5b634e487b7160e01b600052604160045260246000fd5b600060033d111561326457600481823e5160e01c5b90565b600060443d10156132755790565b6040516003193d81016004833e81513d67ffffffffffffffff81602484011181841117156132a557505050505090565b82850191508151818111156132bd5750505050505090565b843d87010160208285010111156132d75750505050505090565b6132e6602082860101876131db565b509095945050505050565b8015158114611de657600080fd5b6001600160e01b031981168114611de657600080fdfea2646970667358221220353683efd27f085f52d2a65e08239ebcf5342147879afef5358fd5c4e371903964736f6c63430008040033",
  "linkReferences": {},
  "deployedLinkReferences": {}
}