{
  "_format": "hh-sol-artifact-1",
  "contractName": "ERC1155Dex",
  "sourceName": "contracts/ERC1155Dex.sol",
  "abi": [
    {
      "inputs": [
        {
          "internalType": "string",
          "name": "_uri",
          "type": "string"
        },
        {
          "internalType": "uint256",
          "name": "_d",
          "type": "uint256"
        }
      ],
      "stateMutability": "nonpayable",
      "type": "constructor"
    },
    {
      "anonymous": false,
      "inputs": [
        {
          "indexed": true,
          "internalType": "address",
          "name": "account",
          "type": "address"
        },
        {
          "indexed": true,
          "internalType": "address",
          "name": "operator",
          "type": "address"
        },
        {
          "indexed": false,
          "internalType": "bool",
          "name": "approved",
          "type": "bool"
        }
      ],
      "name": "ApprovalForAll",
      "type": "event"
    },
    {
      "anonymous": false,
      "inputs": [
        {
          "indexed": false,
          "internalType": "uint256",
          "name": "order_id",
          "type": "uint256"
        },
        {
          "indexed": false,
          "internalType": "address",
          "name": "taker",
          "type": "address"
        }
      ],
      "name": "OrderCalled",
      "type": "event"
    },
    {
      "anonymous": false,
      "inputs": [
        {
          "indexed": false,
          "internalType": "uint256",
          "name": "order_id",
          "type": "uint256"
        }
      ],
      "name": "OrderCanceled",
      "type": "event"
    },
    {
      "anonymous": false,
      "inputs": [
        {
          "indexed": false,
          "internalType": "uint256",
          "name": "order_id",
          "type": "uint256"
        },
        {
          "indexed": false,
          "internalType": "enum ERC1155Dex.OrderType",
          "name": "order_type",
          "type": "uint8"
        },
        {
          "indexed": false,
          "internalType": "uint256",
          "name": "nft_id",
          "type": "uint256"
        },
        {
          "indexed": false,
          "internalType": "uint256",
          "name": "price",
          "type": "uint256"
        },
        {
          "indexed": false,
          "internalType": "address",
          "name": "maker",
          "type": "address"
        }
      ],
      "name": "OrderPosted",
      "type": "event"
    },
    {
      "anonymous": false,
      "inputs": [
        {
          "indexed": true,
          "internalType": "address",
          "name": "operator",
          "type": "address"
        },
        {
          "indexed": true,
          "internalType": "address",
          "name": "from",
          "type": "address"
        },
        {
          "indexed": true,
          "internalType": "address",
          "name": "to",
          "type": "address"
        },
        {
          "indexed": false,
          "internalType": "uint256[]",
          "name": "ids",
          "type": "uint256[]"
        },
        {
          "indexed": false,
          "internalType": "uint256[]",
          "name": "values",
          "type": "uint256[]"
        }
      ],
      "name": "TransferBatch",
      "type": "event"
    },
    {
      "anonymous": false,
      "inputs": [
        {
          "indexed": true,
          "internalType": "address",
          "name": "operator",
          "type": "address"
        },
        {
          "indexed": true,
          "internalType": "address",
          "name": "from",
          "type": "address"
        },
        {
          "indexed": true,
          "internalType": "address",
          "name": "to",
          "type": "address"
        },
        {
          "indexed": false,
          "internalType": "uint256",
          "name": "id",
          "type": "uint256"
        },
        {
          "indexed": false,
          "internalType": "uint256",
          "name": "value",
          "type": "uint256"
        }
      ],
      "name": "TransferSingle",
      "type": "event"
    },
    {
      "anonymous": false,
      "inputs": [
        {
          "indexed": false,
          "internalType": "string",
          "name": "value",
          "type": "string"
        },
        {
          "indexed": true,
          "internalType": "uint256",
          "name": "id",
          "type": "uint256"
        }
      ],
      "name": "URI",
      "type": "event"
    },
    {
      "stateMutability": "payable",
      "type": "fallback"
    },
    {
      "inputs": [],
      "name": "MIN_PRICE",
      "outputs": [
        {
          "internalType": "uint256",
          "name": "",
          "type": "uint256"
        }
      ],
      "stateMutability": "view",
      "type": "function"
    },
    {
      "inputs": [
        {
          "internalType": "address",
          "name": "account",
          "type": "address"
        },
        {
          "internalType": "uint256",
          "name": "id",
          "type": "uint256"
        }
      ],
      "name": "balanceOf",
      "outputs": [
        {
          "internalType": "uint256",
          "name": "",
          "type": "uint256"
        }
      ],
      "stateMutability": "view",
      "type": "function"
    },
    {
      "inputs": [
        {
          "internalType": "address[]",
          "name": "accounts",
          "type": "address[]"
        },
        {
          "internalType": "uint256[]",
          "name": "ids",
          "type": "uint256[]"
        }
      ],
      "name": "balanceOfBatch",
      "outputs": [
        {
          "internalType": "uint256[]",
          "name": "",
          "type": "uint256[]"
        }
      ],
      "stateMutability": "view",
      "type": "function"
    },
    {
      "inputs": [
        {
          "internalType": "uint256",
          "name": "order_id",
          "type": "uint256"
        }
      ],
      "name": "call_ask",
      "outputs": [],
      "stateMutability": "payable",
      "type": "function"
    },
    {
      "inputs": [
        {
          "internalType": "uint256",
          "name": "order_id",
          "type": "uint256"
        }
      ],
      "name": "call_bid",
      "outputs": [],
      "stateMutability": "payable",
      "type": "function"
    },
    {
      "inputs": [
        {
          "internalType": "uint256",
          "name": "order_id",
          "type": "uint256"
        }
      ],
      "name": "cancel_ask",
      "outputs": [],
      "stateMutability": "nonpayable",
      "type": "function"
    },
    {
      "inputs": [
        {
          "internalType": "uint256",
          "name": "order_id",
          "type": "uint256"
        }
      ],
      "name": "cancel_bid",
      "outputs": [],
      "stateMutability": "nonpayable",
      "type": "function"
    },
    {
      "inputs": [],
      "name": "deadline",
      "outputs": [
        {
          "internalType": "uint256",
          "name": "",
          "type": "uint256"
        }
      ],
      "stateMutability": "view",
      "type": "function"
    },
    {
      "inputs": [
        {
          "internalType": "address",
          "name": "account",
          "type": "address"
        },
        {
          "internalType": "address",
          "name": "operator",
          "type": "address"
        }
      ],
      "name": "isApprovedForAll",
      "outputs": [
        {
          "internalType": "bool",
          "name": "",
          "type": "bool"
        }
      ],
      "stateMutability": "view",
      "type": "function"
    },
    {
      "inputs": [],
      "name": "is_funded",
      "outputs": [
        {
          "internalType": "bool",
          "name": "",
          "type": "bool"
        }
      ],
      "stateMutability": "view",
      "type": "function"
    },
    {
      "inputs": [],
      "name": "order_count",
      "outputs": [
        {
          "internalType": "uint256",
          "name": "",
          "type": "uint256"
        }
      ],
      "stateMutability": "view",
      "type": "function"
    },
    {
      "inputs": [
        {
          "internalType": "uint256",
          "name": "",
          "type": "uint256"
        }
      ],
      "name": "orders",
      "outputs": [
        {
          "internalType": "uint256",
          "name": "order_id",
          "type": "uint256"
        },
        {
          "internalType": "enum ERC1155Dex.OrderType",
          "name": "order_type",
          "type": "uint8"
        },
        {
          "internalType": "uint256",
          "name": "nft_id",
          "type": "uint256"
        },
        {
          "internalType": "uint256",
          "name": "price",
          "type": "uint256"
        },
        {
          "internalType": "bool",
          "name": "completed",
          "type": "bool"
        },
        {
          "internalType": "address",
          "name": "maker",
          "type": "address"
        }
      ],
      "stateMutability": "view",
      "type": "function"
    },
    {
      "inputs": [
        {
          "internalType": "uint256",
          "name": "nft_id",
          "type": "uint256"
        },
        {
          "internalType": "uint256",
          "name": "price",
          "type": "uint256"
        }
      ],
      "name": "post_ask",
      "outputs": [
        {
          "internalType": "uint256",
          "name": "order_id",
          "type": "uint256"
        }
      ],
      "stateMutability": "nonpayable",
      "type": "function"
    },
    {
      "inputs": [
        {
          "internalType": "uint256",
          "name": "nft_id",
          "type": "uint256"
        }
      ],
      "name": "post_bid",
      "outputs": [
        {
          "internalType": "uint256",
          "name": "order_id",
          "type": "uint256"
        }
      ],
      "stateMutability": "payable",
      "type": "function"
    },
    {
      "inputs": [
        {
          "internalType": "address",
          "name": "from",
          "type": "address"
        },
        {
          "internalType": "address",
          "name": "to",
          "type": "address"
        },
        {
          "internalType": "uint256[]",
          "name": "ids",
          "type": "uint256[]"
        },
        {
          "internalType": "uint256[]",
          "name": "amounts",
          "type": "uint256[]"
        },
        {
          "internalType": "bytes",
          "name": "data",
          "type": "bytes"
        }
      ],
      "name": "safeBatchTransferFrom",
      "outputs": [],
      "stateMutability": "nonpayable",
      "type": "function"
    },
    {
      "inputs": [
        {
          "internalType": "address",
          "name": "from",
          "type": "address"
        },
        {
          "internalType": "address",
          "name": "to",
          "type": "address"
        },
        {
          "internalType": "uint256",
          "name": "id",
          "type": "uint256"
        },
        {
          "internalType": "uint256",
          "name": "amount",
          "type": "uint256"
        },
        {
          "internalType": "bytes",
          "name": "data",
          "type": "bytes"
        }
      ],
      "name": "safeTransferFrom",
      "outputs": [],
      "stateMutability": "nonpayable",
      "type": "function"
    },
    {
      "inputs": [
        {
          "internalType": "address",
          "name": "operator",
          "type": "address"
        },
        {
          "internalType": "bool",
          "name": "approved",
          "type": "bool"
        }
      ],
      "name": "setApprovalForAll",
      "outputs": [],
      "stateMutability": "nonpayable",
      "type": "function"
    },
    {
      "inputs": [
        {
          "internalType": "bytes4",
          "name": "interfaceId",
          "type": "bytes4"
        }
      ],
      "name": "supportsInterface",
      "outputs": [
        {
          "internalType": "bool",
          "name": "",
          "type": "bool"
        }
      ],
      "stateMutability": "view",
      "type": "function"
    },
    {
      "inputs": [
        {
          "internalType": "uint256",
          "name": "",
          "type": "uint256"
        }
      ],
      "name": "uri",
      "outputs": [
        {
          "internalType": "string",
          "name": "",
          "type": "string"
        }
      ],
      "stateMutability": "view",
      "type": "function"
    },
    {
      "stateMutability": "payable",
      "type": "receive"
    }
  ],
  "bytecode": "0x608060405260006004556006805460ff191690553480156200002057600080fd5b50604051620026ef380380620026ef833981016040819052620000439162000119565b816200004f816200005a565b50600555506200024b565b80516200006f90600290602084019062000073565b5050565b8280546200008190620001f8565b90600052602060002090601f016020900481019282620000a55760008555620000f0565b82601f10620000c057805160ff1916838001178555620000f0565b82800160010185558215620000f0579182015b82811115620000f0578251825591602001919060010190620000d3565b50620000fe92915062000102565b5090565b5b80821115620000fe576000815560010162000103565b600080604083850312156200012c578182fd5b82516001600160401b038082111562000143578384fd5b818501915085601f83011262000157578384fd5b8151818111156200016c576200016c62000235565b604051601f8201601f19908116603f0116810190838211818310171562000197576200019762000235565b81604052828152602093508884848701011115620001b3578687fd5b8691505b82821015620001d65784820184015181830185015290830190620001b7565b82821115620001e757868484830101525b969092015195979596505050505050565b600181811c908216806200020d57607f821691505b602082108114156200022f57634e487b7160e01b600052602260045260246000fd5b50919050565b634e487b7160e01b600052604160045260246000fd5b612494806200025b6000396000f3fe6080604052600436106101175760003560e01c80637a09bbf7116100a0578063cc0f386b11610064578063cc0f386b14610362578063d747a1af14610375578063e985e9c514610395578063f242432a146103de578063ffedfa2f146103fe57610152565b80637a09bbf7146102c7578063a22cb465146102e7578063a85c38ef14610307578063ad9f20a614610339578063b41dc1a71461034f57610152565b806329dcb0cf116100e757806329dcb0cf146102345780632a1f11991461024a5780632eb2c2d6146102605780634b6026bb146102805780634e1273f41461029a57610152565b8062fdd58e1461018457806301ffc9a7146101b75780630e89341c146101e75780632996c1651461021457610152565b366101525734156101505760405133903480156108fc02916000818181858888f1935050505015801561014e573d6000803e3d6000fd5b505b005b34156101505760405133903480156108fc02916000818181858888f1935050505015801561014e573d6000803e3d6000fd5b34801561019057600080fd5b506101a461019f366004611dd3565b610411565b6040519081526020015b60405180910390f35b3480156101c357600080fd5b506101d76101d2366004611ec7565b6104a8565b60405190151581526020016101ae565b3480156101f357600080fd5b50610207610202366004611f06565b6104fa565b6040516101ae91906120ca565b34801561022057600080fd5b5061015061022f366004611f06565b61058e565b34801561024057600080fd5b506101a460055481565b34801561025657600080fd5b506101a460045481565b34801561026c57600080fd5b5061015061027b366004611c90565b6106b2565b34801561028c57600080fd5b506006546101d79060ff1681565b3480156102a657600080fd5b506102ba6102b5366004611dfc565b610749565b6040516101ae9190612089565b3480156102d357600080fd5b506101a46102e2366004611f1e565b6108ab565b3480156102f357600080fd5b50610150610302366004611d99565b610acd565b34801561031357600080fd5b50610327610322366004611f06565b610ba4565b6040516101ae96959493929190612277565b34801561034557600080fd5b506101a46103e881565b61015061035d366004611f06565b610bfc565b6101a4610370366004611f06565b610e02565b34801561038157600080fd5b50610150610390366004611f06565b611018565b3480156103a157600080fd5b506101d76103b0366004611c5e565b6001600160a01b03918216600090815260016020908152604080832093909416825291909152205460ff1690565b3480156103ea57600080fd5b506101506103f9366004611d36565b611141565b61015061040c366004611f06565b6111c8565b60006001600160a01b0383166104825760405162461bcd60e51b815260206004820152602b60248201527f455243313135353a2062616c616e636520717565727920666f7220746865207a60448201526a65726f206164647265737360a81b60648201526084015b60405180910390fd5b506000908152602081815260408083206001600160a01b03949094168352929052205490565b60006001600160e01b03198216636cdb3d1360e11b14806104d957506001600160e01b031982166303a24d0760e21b145b806104f457506301ffc9a760e01b6001600160e01b03198316145b92915050565b606060028054610509906122f4565b80601f0160208091040260200160405190810160405280929190818152602001828054610535906122f4565b80156105825780601f1061055757610100808354040283529160200191610582565b820191906000526020600020905b81548152906001019060200180831161056557829003601f168201915b50505050509050919050565b6000600382815481106105b157634e487b7160e01b600052603260045260246000fd5b60009182526020909120600590910201600481015490915060ff16156105e95760405162461bcd60e51b815260040161047990612153565b60048101546001600160a01b036101009091041633146106455760405162461bcd60e51b815260206004820152601760248201527602cb7ba9030b932903737ba103a34329036b0b5b2b9171604d1b6044820152606401610479565b610665338260020154600160405180602001604052806000815250611337565b60048101805460ff191660011790556040517fc41f4ceb2938876c35e61b705e9d2f18a02c4a26ce5e049a6308a943d46851b3906106a69084815260200190565b60405180910390a15050565b6001600160a01b0385163314806106ce57506106ce85336103b0565b6107355760405162461bcd60e51b815260206004820152603260248201527f455243313135353a207472616e736665722063616c6c6572206973206e6f74206044820152711bdddb995c881b9bdc88185c1c1c9bdd995960721b6064820152608401610479565b6107428585858585611441565b5050505050565b606081518351146107ae5760405162461bcd60e51b815260206004820152602960248201527f455243313135353a206163636f756e747320616e6420696473206c656e677468604482015268040dad2e6dac2e8c6d60bb1b6064820152608401610479565b6000835167ffffffffffffffff8111156107d857634e487b7160e01b600052604160045260246000fd5b604051908082528060200260200182016040528015610801578160200160208202803683370190505b50905060005b84518110156108a35761086885828151811061083357634e487b7160e01b600052603260045260246000fd5b602002602001015185838151811061085b57634e487b7160e01b600052603260045260246000fd5b6020026020010151610411565b82828151811061088857634e487b7160e01b600052603260045260246000fd5b602090810291909101015261089c8161235c565b9050610807565b509392505050565b600060055442106108ce5760405162461bcd60e51b815260040161047990612210565b60065460ff16156108f15760405162461bcd60e51b815260040161047990612125565b6103e88210156109435760405162461bcd60e51b815260206004820152601c60248201527f5072696365206973206c657373207468616e206d696e696d616c2e20000000006044820152606401610479565b61094f3384600161163a565b506004546040805160c081018252828152600160208201818152928201869052606082018590526000608083018190523360a08401526003805480840182559152825160059091027fc2575a0e9e593c00f959f8c92f12db2869c3395a3b0502d05e2516446f71f85b810191825593517fc2575a0e9e593c00f959f8c92f12db2869c3395a3b0502d05e2516446f71f85c9094018054939491939192909160ff1916908381811115610a1157634e487b7160e01b600052602160045260246000fd5b0217905550604082015160028201556060820151600382015560808201516004918201805460a0909401516001600160a01b031661010002610100600160a81b0319921515929092166001600160a81b031990941693909317179091558054906000610a7c8361235c565b91905055507f62317d9a57a5daf76ddf50f27c2f5e8ee74ec45e74c658ee168747579d76a1858160018585610aae3390565b604051610abf95949392919061223e565b60405180910390a192915050565b336001600160a01b0383161415610b385760405162461bcd60e51b815260206004820152602960248201527f455243313135353a2073657474696e6720617070726f76616c20737461747573604482015268103337b91039b2b63360b91b6064820152608401610479565b3360008181526001602090815260408083206001600160a01b03871680855290835292819020805460ff191686151590811790915590519081529192917f17307eab39ab6107e8899845ad3d59bd9653f200f220920489ca2b5937696c31910160405180910390a35050565b60038181548110610bb457600080fd5b60009182526020909120600590910201805460018201546002830154600384015460049094015492945060ff918216939092909181169061010090046001600160a01b031686565b6005544210610c1d5760405162461bcd60e51b815260040161047990612210565b60065460ff1615610c405760405162461bcd60e51b815260040161047990612125565b600060038281548110610c6357634e487b7160e01b600052603260045260246000fd5b60009182526020909120600590910201600481015490915060ff1615610c9b5760405162461bcd60e51b815260040161047990612153565b60048101546001600160a01b0361010090910416331415610cf45760405162461bcd60e51b815260206004820152601360248201527202cb7ba9030b932903a34329036b0b5b2b9171606d1b6044820152606401610479565b8060030154341015610d485760405162461bcd60e51b815260206004820152601760248201527f4e6f7420656e6f756768206d6f6e65792073656e742e200000000000000000006044820152606401610479565b610d68338260020154600160405180602001604052806000815250611337565b600481015460038201546040516101009092046001600160a01b0316916108fc82150291906000818181858888f19350505050158015610dac573d6000803e3d6000fd5b5060048101805460ff191660011790557f2b5e8b63b9bdec78112f8183b2dacdb0a2c0f38f63d3bfc060172b603a9e554282610de53390565b604080519283526001600160a01b039091166020830152016106a6565b60006005544210610e255760405162461bcd60e51b815260040161047990612210565b60065460ff1615610e485760405162461bcd60e51b815260040161047990612125565b6103e8341015610e9a5760405162461bcd60e51b815260206004820152601c60248201527f5072696365206973206c657373207468616e206d696e696d616c2e20000000006044820152606401610479565b506004546040805160c081018252828152600060208201818152928201859052346060830152608082018190523360a0830152600380546001808201835591909252825160059092027fc2575a0e9e593c00f959f8c92f12db2869c3395a3b0502d05e2516446f71f85b810192835593517fc2575a0e9e593c00f959f8c92f12db2869c3395a3b0502d05e2516446f71f85c909401805493949293909160ff19909116908381811115610f5d57634e487b7160e01b600052602160045260246000fd5b0217905550604082015160028201556060820151600382015560808201516004918201805460a0909401516001600160a01b031661010002610100600160a81b0319921515929092166001600160a81b031990941693909317179091558054906000610fc88361235c565b91905055507f62317d9a57a5daf76ddf50f27c2f5e8ee74ec45e74c658ee168747579d76a1858160008434610ffa3390565b60405161100b95949392919061223e565b60405180910390a1919050565b60006003828154811061103b57634e487b7160e01b600052603260045260246000fd5b60009182526020909120600590910201600481015490915060ff16156110735760405162461bcd60e51b815260040161047990612153565b60048101546001600160a01b036101009091041633146110cf5760405162461bcd60e51b815260206004820152601760248201527602cb7ba9030b932903737ba103a34329036b0b5b2b9171604d1b6044820152606401610479565b6003810154604051339180156108fc02916000818181858888f193505050501580156110ff573d6000803e3d6000fd5b5060048101805460ff191660011790556040517fc41f4ceb2938876c35e61b705e9d2f18a02c4a26ce5e049a6308a943d46851b3906106a69084815260200190565b6001600160a01b03851633148061115d575061115d85336103b0565b6111bb5760405162461bcd60e51b815260206004820152602960248201527f455243313135353a2063616c6c6572206973206e6f74206f776e6572206e6f7260448201526808185c1c1c9bdd995960ba1b6064820152608401610479565b61074285858585856117b4565b60055442106111e95760405162461bcd60e51b815260040161047990612210565b60065460ff161561120c5760405162461bcd60e51b815260040161047990612125565b60006003828154811061122f57634e487b7160e01b600052603260045260246000fd5b60009182526020909120600590910201600481015490915060ff16156112675760405162461bcd60e51b815260040161047990612153565b60048101546001600160a01b03610100909104163314156112c05760405162461bcd60e51b815260206004820152601360248201527202cb7ba9030b932903a34329036b0b5b2b9171606d1b6044820152606401610479565b6112d0338260020154600161163a565b6113078160040160019054906101000a90046001600160a01b03168260020154600160405180602001604052806000815250611337565b6003810154604051339180156108fc02916000818181858888f19350505050158015610dac573d6000803e3d6000fd5b6001600160a01b0384166113975760405162461bcd60e51b815260206004820152602160248201527f455243313135353a206d696e7420746f20746865207a65726f206164647265736044820152607360f81b6064820152608401610479565b336113b1816000876113a8886118d1565b610742886118d1565b6000848152602081815260408083206001600160a01b0389168452909152812080548592906113e19084906122dc565b909155505060408051858152602081018590526001600160a01b0380881692600092918516917fc3d58168c5ae7397731d063d5bbf3d657854427343f4c083240f7aacaa2d0f62910160405180910390a46107428160008787878761192a565b81518351146114a35760405162461bcd60e51b815260206004820152602860248201527f455243313135353a2069647320616e6420616d6f756e7473206c656e677468206044820152670dad2e6dac2e8c6d60c31b6064820152608401610479565b6001600160a01b0384166114c95760405162461bcd60e51b815260040161047990612181565b3360005b84518110156115cc5760008582815181106114f857634e487b7160e01b600052603260045260246000fd5b60200260200101519050600085838151811061152457634e487b7160e01b600052603260045260246000fd5b602090810291909101810151600084815280835260408082206001600160a01b038e1683529093529190912054909150818110156115745760405162461bcd60e51b8152600401610479906121c6565b6000838152602081815260408083206001600160a01b038e8116855292528083208585039055908b168252812080548492906115b19084906122dc565b92505081905550505050806115c59061235c565b90506114cd565b50846001600160a01b0316866001600160a01b0316826001600160a01b03167f4a39dc06d4c0dbc64b70af90fd698a233a518aa5d07e595d983b8c0526c8f7fb878760405161161c92919061209c565b60405180910390a4611632818787878787611a95565b505050505050565b6001600160a01b03831661169c5760405162461bcd60e51b815260206004820152602360248201527f455243313135353a206275726e2066726f6d20746865207a65726f206164647260448201526265737360e81b6064820152608401610479565b336116cc818560006116ad876118d1565b6116b6876118d1565b5050604080516020810190915260009052505050565b6000838152602081815260408083206001600160a01b0388168452909152902054828110156117495760405162461bcd60e51b8152602060048201526024808201527f455243313135353a206275726e20616d6f756e7420657863656564732062616c604482015263616e636560e01b6064820152608401610479565b6000848152602081815260408083206001600160a01b03898116808652918452828520888703905582518981529384018890529092908616917fc3d58168c5ae7397731d063d5bbf3d657854427343f4c083240f7aacaa2d0f62910160405180910390a45050505050565b6001600160a01b0384166117da5760405162461bcd60e51b815260040161047990612181565b336117ea8187876113a8886118d1565b6000848152602081815260408083206001600160a01b038a1684529091529020548381101561182b5760405162461bcd60e51b8152600401610479906121c6565b6000858152602081815260408083206001600160a01b038b81168552925280832087850390559088168252812080548692906118689084906122dc565b909155505060408051868152602081018690526001600160a01b03808916928a821692918616917fc3d58168c5ae7397731d063d5bbf3d657854427343f4c083240f7aacaa2d0f62910160405180910390a46118c882888888888861192a565b50505050505050565b6040805160018082528183019092526060916000919060208083019080368337019050509050828160008151811061191957634e487b7160e01b600052603260045260246000fd5b602090810291909101015292915050565b6001600160a01b0384163b156116325760405163f23a6e6160e01b81526001600160a01b0385169063f23a6e619061196e9089908990889088908890600401612044565b602060405180830381600087803b15801561198857600080fd5b505af19250505080156119b8575060408051601f3d908101601f191682019092526119b591810190611eea565b60015b611a65576119c46123a3565b806308c379a014156119fe57506119d96123bb565b806119e45750611a00565b8060405162461bcd60e51b815260040161047991906120ca565b505b60405162461bcd60e51b815260206004820152603460248201527f455243313135353a207472616e7366657220746f206e6f6e20455243313135356044820152732932b1b2b4bb32b91034b6b83632b6b2b73a32b960611b6064820152608401610479565b6001600160e01b0319811663f23a6e6160e01b146118c85760405162461bcd60e51b8152600401610479906120dd565b6001600160a01b0384163b156116325760405163bc197c8160e01b81526001600160a01b0385169063bc197c8190611ad99089908990889088908890600401611fe6565b602060405180830381600087803b158015611af357600080fd5b505af1925050508015611b23575060408051601f3d908101601f19168201909252611b2091810190611eea565b60015b611b2f576119c46123a3565b6001600160e01b0319811663bc197c8160e01b146118c85760405162461bcd60e51b8152600401610479906120dd565b80356001600160a01b0381168114611b7657600080fd5b919050565b600082601f830112611b8b578081fd5b81356020611b98826122b8565b604051611ba5828261232f565b8381528281019150858301600585901b87018401881015611bc4578586fd5b855b85811015611be257813584529284019290840190600101611bc6565b5090979650505050505050565b600082601f830112611bff578081fd5b813567ffffffffffffffff811115611c1957611c1961238d565b604051611c30601f8301601f19166020018261232f565b818152846020838601011115611c44578283fd5b816020850160208301379081016020019190915292915050565b60008060408385031215611c70578182fd5b611c7983611b5f565b9150611c8760208401611b5f565b90509250929050565b600080600080600060a08688031215611ca7578081fd5b611cb086611b5f565b9450611cbe60208701611b5f565b9350604086013567ffffffffffffffff80821115611cda578283fd5b611ce689838a01611b7b565b94506060880135915080821115611cfb578283fd5b611d0789838a01611b7b565b93506080880135915080821115611d1c578283fd5b50611d2988828901611bef565b9150509295509295909350565b600080600080600060a08688031215611d4d578081fd5b611d5686611b5f565b9450611d6460208701611b5f565b93506040860135925060608601359150608086013567ffffffffffffffff811115611d8d578182fd5b611d2988828901611bef565b60008060408385031215611dab578182fd5b611db483611b5f565b915060208301358015158114611dc8578182fd5b809150509250929050565b60008060408385031215611de5578182fd5b611dee83611b5f565b946020939093013593505050565b60008060408385031215611e0e578182fd5b823567ffffffffffffffff80821115611e25578384fd5b818501915085601f830112611e38578384fd5b81356020611e45826122b8565b604051611e52828261232f565b8381528281019150858301600585901b870184018b1015611e71578889fd5b8896505b84871015611e9a57611e8681611b5f565b835260019690960195918301918301611e75565b5096505086013592505080821115611eb0578283fd5b50611ebd85828601611b7b565b9150509250929050565b600060208284031215611ed8578081fd5b8135611ee381612445565b9392505050565b600060208284031215611efb578081fd5b8151611ee381612445565b600060208284031215611f17578081fd5b5035919050565b60008060408385031215611f30578182fd5b50508035926020909101359150565b6000815180845260208085019450808401835b83811015611f6e57815187529582019590820190600101611f52565b509495945050505050565b60008151808452815b81811015611f9e57602081850181015186830182015201611f82565b81811115611faf5782602083870101525b50601f01601f19169290920160200192915050565b60028110611fe257634e487b7160e01b600052602160045260246000fd5b9052565b6001600160a01b0386811682528516602082015260a06040820181905260009061201290830186611f3f565b82810360608401526120248186611f3f565b905082810360808401526120388185611f79565b98975050505050505050565b6001600160a01b03868116825285166020820152604081018490526060810183905260a06080820181905260009061207e90830184611f79565b979650505050505050565b602081526000611ee36020830184611f3f565b6040815260006120af6040830185611f3f565b82810360208401526120c18185611f3f565b95945050505050565b602081526000611ee36020830184611f79565b60208082526028908201527f455243313135353a204552433131353552656365697665722072656a656374656040820152676420746f6b656e7360c01b606082015260800190565b602080825260149082015273021b0b6b830b4b3b71034b990333ab73232b217160651b604082015260600190565b602080825260149082015273027b93232b91034b99031b7b6b83632ba32b217160651b604082015260600190565b60208082526025908201527f455243313135353a207472616e7366657220746f20746865207a65726f206164604082015264647265737360d81b606082015260800190565b6020808252602a908201527f455243313135353a20696e73756666696369656e742062616c616e636520666f60408201526939103a3930b739b332b960b11b606082015260800190565b602080825260149082015273021b0b6b830b4b3b71034b99031b637b9b2b217160651b604082015260600190565b85815260a081016122526020830187611fc4565b604082019490945260608101929092526001600160a01b031660809091015292915050565b86815260c0810161228b6020830188611fc4565b6040820195909552606081019390935290151560808301526001600160a01b031660a09091015292915050565b600067ffffffffffffffff8211156122d2576122d261238d565b5060051b60200190565b600082198211156122ef576122ef612377565b500190565b600181811c9082168061230857607f821691505b6020821081141561232957634e487b7160e01b600052602260045260246000fd5b50919050565b601f8201601f1916810167ffffffffffffffff811182821017156123555761235561238d565b6040525050565b600060001982141561237057612370612377565b5060010190565b634e487b7160e01b600052601160045260246000fd5b634e487b7160e01b600052604160045260246000fd5b600060033d11156123b857600481823e5160e01c5b90565b600060443d10156123c95790565b6040516003193d81016004833e81513d67ffffffffffffffff81602484011181841117156123f957505050505090565b82850191508151818111156124115750505050505090565b843d870101602082850101111561242b5750505050505090565b61243a6020828601018761232f565b509095945050505050565b6001600160e01b03198116811461245b57600080fd5b5056fea26469706673582212209ff7481269887924e6e29b8f9e5c4086b2f633b167166d8c315b411e8844cd5b64736f6c63430008040033",
  "linkReferences": {},
  "deployedLinkReferences": {}
}