{
  "_format": "hh-sol-artifact-1",
  "contractName": "CrowdLoan",
  "sourceName": "contracts/CrowdLoan.sol",
  "abi": [
    {
      "inputs": [
        {
          "internalType": "contract ERC20",
          "name": "_usdc_contract",
          "type": "address"
        },
        {
          "internalType": "address",
          "name": "creator",
          "type": "address"
        },
        {
          "internalType": "string",
          "name": "_uri",
          "type": "string"
        },
        {
          "internalType": "uint256",
          "name": "number_of_days",
          "type": "uint256"
        },
        {
          "internalType": "uint256[]",
          "name": "amounts",
          "type": "uint256[]"
        },
        {
          "internalType": "uint256[]",
          "name": "interests",
          "type": "uint256[]"
        },
        {
          "internalType": "uint256[]",
          "name": "supplies",
          "type": "uint256[]"
        },
        {
          "internalType": "string",
          "name": "title",
          "type": "string"
        },
        {
          "internalType": "string",
          "name": "image_url",
          "type": "string"
        }
      ],
      "stateMutability": "nonpayable",
      "type": "constructor"
    },
    {
      "anonymous": false,
      "inputs": [
        {
          "indexed": true,
          "internalType": "address",
          "name": "account",
          "type": "address"
        },
        {
          "indexed": true,
          "internalType": "address",
          "name": "operator",
          "type": "address"
        },
        {
          "indexed": false,
          "internalType": "bool",
          "name": "approved",
          "type": "bool"
        }
      ],
      "name": "ApprovalForAll",
      "type": "event"
    },
    {
      "anonymous": false,
      "inputs": [
        {
          "indexed": false,
          "internalType": "address",
          "name": "owner",
          "type": "address"
        },
        {
          "indexed": false,
          "internalType": "uint256",
          "name": "amount",
          "type": "uint256"
        }
      ],
      "name": "CollateralDeposited",
      "type": "event"
    },
    {
      "anonymous": false,
      "inputs": [
        {
          "indexed": false,
          "internalType": "uint256",
          "name": "id",
          "type": "uint256"
        },
        {
          "indexed": false,
          "internalType": "address",
          "name": "commentor",
          "type": "address"
        },
        {
          "indexed": false,
          "internalType": "string",
          "name": "content",
          "type": "string"
        }
      ],
      "name": "CommentAdded",
      "type": "event"
    },
    {
      "anonymous": false,
      "inputs": [
        {
          "indexed": false,
          "internalType": "uint256",
          "name": "value",
          "type": "uint256"
        },
        {
          "indexed": false,
          "internalType": "uint256",
          "name": "debt_deposited_balance",
          "type": "uint256"
        }
      ],
      "name": "DebtDeposited",
      "type": "event"
    },
    {
      "anonymous": false,
      "inputs": [
        {
          "indexed": false,
          "internalType": "address",
          "name": "sender",
          "type": "address"
        },
        {
          "indexed": false,
          "internalType": "uint256",
          "name": "value",
          "type": "uint256"
        },
        {
          "indexed": false,
          "internalType": "uint256",
          "name": "funding_balance",
          "type": "uint256"
        }
      ],
      "name": "Donated",
      "type": "event"
    },
    {
      "anonymous": false,
      "inputs": [
        {
          "indexed": false,
          "internalType": "address",
          "name": "sender",
          "type": "address"
        },
        {
          "indexed": false,
          "internalType": "uint256",
          "name": "id",
          "type": "uint256"
        },
        {
          "indexed": false,
          "internalType": "uint256",
          "name": "amount",
          "type": "uint256"
        },
        {
          "indexed": false,
          "internalType": "uint256",
          "name": "funding_balance",
          "type": "uint256"
        }
      ],
      "name": "LoanBought",
      "type": "event"
    },
    {
      "anonymous": false,
      "inputs": [
        {
          "indexed": false,
          "internalType": "address",
          "name": "sender",
          "type": "address"
        },
        {
          "indexed": false,
          "internalType": "uint256",
          "name": "id",
          "type": "uint256"
        },
        {
          "indexed": false,
          "internalType": "uint256",
          "name": "amount",
          "type": "uint256"
        },
        {
          "indexed": false,
          "internalType": "uint256",
          "name": "claimed_amount",
          "type": "uint256"
        }
      ],
      "name": "LoanClaimed",
      "type": "event"
    },
    {
      "anonymous": false,
      "inputs": [
        {
          "indexed": false,
          "internalType": "uint256",
          "name": "id",
          "type": "uint256"
        },
        {
          "indexed": false,
          "internalType": "uint256",
          "name": "amount",
          "type": "uint256"
        }
      ],
      "name": "LoanSupplyIncreased",
      "type": "event"
    },
    {
      "anonymous": false,
      "inputs": [
        {
          "indexed": false,
          "internalType": "uint256",
          "name": "order_id",
          "type": "uint256"
        },
        {
          "indexed": false,
          "internalType": "address",
          "name": "taker",
          "type": "address"
        }
      ],
      "name": "OrderCalled",
      "type": "event"
    },
    {
      "anonymous": false,
      "inputs": [
        {
          "indexed": false,
          "internalType": "uint256",
          "name": "order_id",
          "type": "uint256"
        }
      ],
      "name": "OrderCanceled",
      "type": "event"
    },
    {
      "anonymous": false,
      "inputs": [
        {
          "indexed": false,
          "internalType": "uint256",
          "name": "order_id",
          "type": "uint256"
        },
        {
          "indexed": false,
          "internalType": "enum ERC1155Dex.OrderType",
          "name": "order_type",
          "type": "uint8"
        },
        {
          "indexed": false,
          "internalType": "uint256",
          "name": "nft_id",
          "type": "uint256"
        },
        {
          "indexed": false,
          "internalType": "uint256",
          "name": "price",
          "type": "uint256"
        },
        {
          "indexed": false,
          "internalType": "address",
          "name": "maker",
          "type": "address"
        }
      ],
      "name": "OrderPosted",
      "type": "event"
    },
    {
      "anonymous": false,
      "inputs": [
        {
          "indexed": true,
          "internalType": "address",
          "name": "previousOwner",
          "type": "address"
        },
        {
          "indexed": true,
          "internalType": "address",
          "name": "newOwner",
          "type": "address"
        }
      ],
      "name": "OwnershipTransferred",
      "type": "event"
    },
    {
      "anonymous": false,
      "inputs": [
        {
          "indexed": false,
          "internalType": "address",
          "name": "sender",
          "type": "address"
        },
        {
          "indexed": false,
          "internalType": "uint256",
          "name": "id",
          "type": "uint256"
        },
        {
          "indexed": false,
          "internalType": "uint256",
          "name": "amount",
          "type": "uint256"
        }
      ],
      "name": "Refunded",
      "type": "event"
    },
    {
      "anonymous": false,
      "inputs": [
        {
          "indexed": true,
          "internalType": "address",
          "name": "operator",
          "type": "address"
        },
        {
          "indexed": true,
          "internalType": "address",
          "name": "from",
          "type": "address"
        },
        {
          "indexed": true,
          "internalType": "address",
          "name": "to",
          "type": "address"
        },
        {
          "indexed": false,
          "internalType": "uint256[]",
          "name": "ids",
          "type": "uint256[]"
        },
        {
          "indexed": false,
          "internalType": "uint256[]",
          "name": "values",
          "type": "uint256[]"
        }
      ],
      "name": "TransferBatch",
      "type": "event"
    },
    {
      "anonymous": false,
      "inputs": [
        {
          "indexed": true,
          "internalType": "address",
          "name": "operator",
          "type": "address"
        },
        {
          "indexed": true,
          "internalType": "address",
          "name": "from",
          "type": "address"
        },
        {
          "indexed": true,
          "internalType": "address",
          "name": "to",
          "type": "address"
        },
        {
          "indexed": false,
          "internalType": "uint256",
          "name": "id",
          "type": "uint256"
        },
        {
          "indexed": false,
          "internalType": "uint256",
          "name": "value",
          "type": "uint256"
        }
      ],
      "name": "TransferSingle",
      "type": "event"
    },
    {
      "anonymous": false,
      "inputs": [
        {
          "indexed": false,
          "internalType": "string",
          "name": "value",
          "type": "string"
        },
        {
          "indexed": true,
          "internalType": "uint256",
          "name": "id",
          "type": "uint256"
        }
      ],
      "name": "URI",
      "type": "event"
    },
    {
      "anonymous": false,
      "inputs": [
        {
          "indexed": false,
          "internalType": "uint256",
          "name": "id",
          "type": "uint256"
        },
        {
          "indexed": false,
          "internalType": "string",
          "name": "content",
          "type": "string"
        }
      ],
      "name": "UpdateAdded",
      "type": "event"
    },
    {
      "anonymous": false,
      "inputs": [
        {
          "indexed": false,
          "internalType": "address",
          "name": "sender",
          "type": "address"
        },
        {
          "indexed": false,
          "internalType": "uint256",
          "name": "pool_balance",
          "type": "uint256"
        }
      ],
      "name": "Withdrawn",
      "type": "event"
    },
    {
      "stateMutability": "payable",
      "type": "fallback"
    },
    {
      "inputs": [],
      "name": "MIN_INTEREST",
      "outputs": [
        {
          "internalType": "uint256",
          "name": "",
          "type": "uint256"
        }
      ],
      "stateMutability": "view",
      "type": "function"
    },
    {
      "inputs": [],
      "name": "MIN_PRICE",
      "outputs": [
        {
          "internalType": "uint256",
          "name": "",
          "type": "uint256"
        }
      ],
      "stateMutability": "view",
      "type": "function"
    },
    {
      "inputs": [
        {
          "internalType": "string",
          "name": "content",
          "type": "string"
        }
      ],
      "name": "add_comment",
      "outputs": [],
      "stateMutability": "nonpayable",
      "type": "function"
    },
    {
      "inputs": [
        {
          "internalType": "string",
          "name": "content",
          "type": "string"
        }
      ],
      "name": "add_update",
      "outputs": [],
      "stateMutability": "nonpayable",
      "type": "function"
    },
    {
      "inputs": [],
      "name": "amount_count",
      "outputs": [
        {
          "internalType": "uint256",
          "name": "",
          "type": "uint256"
        }
      ],
      "stateMutability": "view",
      "type": "function"
    },
    {
      "inputs": [
        {
          "internalType": "address",
          "name": "account",
          "type": "address"
        },
        {
          "internalType": "uint256",
          "name": "id",
          "type": "uint256"
        }
      ],
      "name": "balanceOf",
      "outputs": [
        {
          "internalType": "uint256",
          "name": "",
          "type": "uint256"
        }
      ],
      "stateMutability": "view",
      "type": "function"
    },
    {
      "inputs": [
        {
          "internalType": "address[]",
          "name": "accounts",
          "type": "address[]"
        },
        {
          "internalType": "uint256[]",
          "name": "ids",
          "type": "uint256[]"
        }
      ],
      "name": "balanceOfBatch",
      "outputs": [
        {
          "internalType": "uint256[]",
          "name": "",
          "type": "uint256[]"
        }
      ],
      "stateMutability": "view",
      "type": "function"
    },
    {
      "inputs": [
        {
          "internalType": "uint256",
          "name": "order_id",
          "type": "uint256"
        }
      ],
      "name": "call_ask",
      "outputs": [],
      "stateMutability": "payable",
      "type": "function"
    },
    {
      "inputs": [
        {
          "internalType": "uint256",
          "name": "order_id",
          "type": "uint256"
        }
      ],
      "name": "call_bid",
      "outputs": [],
      "stateMutability": "payable",
      "type": "function"
    },
    {
      "inputs": [
        {
          "internalType": "uint256",
          "name": "order_id",
          "type": "uint256"
        }
      ],
      "name": "cancel_ask",
      "outputs": [],
      "stateMutability": "nonpayable",
      "type": "function"
    },
    {
      "inputs": [
        {
          "internalType": "uint256",
          "name": "order_id",
          "type": "uint256"
        }
      ],
      "name": "cancel_bid",
      "outputs": [],
      "stateMutability": "nonpayable",
      "type": "function"
    },
    {
      "inputs": [],
      "name": "claimed_count",
      "outputs": [
        {
          "internalType": "uint256",
          "name": "",
          "type": "uint256"
        }
      ],
      "stateMutability": "view",
      "type": "function"
    },
    {
      "inputs": [],
      "name": "comment_count",
      "outputs": [
        {
          "internalType": "uint256",
          "name": "",
          "type": "uint256"
        }
      ],
      "stateMutability": "view",
      "type": "function"
    },
    {
      "inputs": [
        {
          "internalType": "uint256",
          "name": "",
          "type": "uint256"
        }
      ],
      "name": "comments",
      "outputs": [
        {
          "internalType": "address",
          "name": "commentor",
          "type": "address"
        },
        {
          "internalType": "string",
          "name": "content",
          "type": "string"
        }
      ],
      "stateMutability": "view",
      "type": "function"
    },
    {
      "inputs": [],
      "name": "deadline",
      "outputs": [
        {
          "internalType": "uint256",
          "name": "",
          "type": "uint256"
        }
      ],
      "stateMutability": "view",
      "type": "function"
    },
    {
      "inputs": [],
      "name": "debt_deposited_balance",
      "outputs": [
        {
          "internalType": "uint256",
          "name": "",
          "type": "uint256"
        }
      ],
      "stateMutability": "view",
      "type": "function"
    },
    {
      "inputs": [],
      "name": "funding_balance",
      "outputs": [
        {
          "internalType": "uint256",
          "name": "",
          "type": "uint256"
        }
      ],
      "stateMutability": "view",
      "type": "function"
    },
    {
      "inputs": [],
      "name": "funding_goal",
      "outputs": [
        {
          "internalType": "uint256",
          "name": "",
          "type": "uint256"
        }
      ],
      "stateMutability": "view",
      "type": "function"
    },
    {
      "inputs": [
        {
          "internalType": "uint256",
          "name": "comment_id",
          "type": "uint256"
        }
      ],
      "name": "get_comment",
      "outputs": [
        {
          "internalType": "address",
          "name": "",
          "type": "address"
        },
        {
          "internalType": "string",
          "name": "",
          "type": "string"
        }
      ],
      "stateMutability": "view",
      "type": "function"
    },
    {
      "inputs": [
        {
          "internalType": "uint256",
          "name": "update_id",
          "type": "uint256"
        }
      ],
      "name": "get_update",
      "outputs": [
        {
          "internalType": "string",
          "name": "",
          "type": "string"
        },
        {
          "internalType": "uint256",
          "name": "",
          "type": "uint256"
        }
      ],
      "stateMutability": "view",
      "type": "function"
    },
    {
      "inputs": [
        {
          "internalType": "uint256",
          "name": "",
          "type": "uint256"
        }
      ],
      "name": "id_loan",
      "outputs": [
        {
          "internalType": "uint256",
          "name": "interest",
          "type": "uint256"
        },
        {
          "internalType": "uint256",
          "name": "amount",
          "type": "uint256"
        },
        {
          "internalType": "uint256",
          "name": "total_supply",
          "type": "uint256"
        },
        {
          "internalType": "uint256",
          "name": "current_supply",
          "type": "uint256"
        }
      ],
      "stateMutability": "view",
      "type": "function"
    },
    {
      "inputs": [
        {
          "internalType": "uint256",
          "name": "",
          "type": "uint256"
        }
      ],
      "name": "ids",
      "outputs": [
        {
          "internalType": "uint256",
          "name": "",
          "type": "uint256"
        }
      ],
      "stateMutability": "view",
      "type": "function"
    },
    {
      "inputs": [],
      "name": "image_url",
      "outputs": [
        {
          "internalType": "string",
          "name": "",
          "type": "string"
        }
      ],
      "stateMutability": "view",
      "type": "function"
    },
    {
      "inputs": [
        {
          "internalType": "address",
          "name": "account",
          "type": "address"
        },
        {
          "internalType": "address",
          "name": "operator",
          "type": "address"
        }
      ],
      "name": "isApprovedForAll",
      "outputs": [
        {
          "internalType": "bool",
          "name": "",
          "type": "bool"
        }
      ],
      "stateMutability": "view",
      "type": "function"
    },
    {
      "inputs": [],
      "name": "is_deposited",
      "outputs": [
        {
          "internalType": "bool",
          "name": "",
          "type": "bool"
        }
      ],
      "stateMutability": "view",
      "type": "function"
    },
    {
      "inputs": [],
      "name": "is_funded",
      "outputs": [
        {
          "internalType": "bool",
          "name": "",
          "type": "bool"
        }
      ],
      "stateMutability": "view",
      "type": "function"
    },
    {
      "inputs": [],
      "name": "order_count",
      "outputs": [
        {
          "internalType": "uint256",
          "name": "",
          "type": "uint256"
        }
      ],
      "stateMutability": "view",
      "type": "function"
    },
    {
      "inputs": [
        {
          "internalType": "uint256",
          "name": "",
          "type": "uint256"
        }
      ],
      "name": "orders",
      "outputs": [
        {
          "internalType": "uint256",
          "name": "order_id",
          "type": "uint256"
        },
        {
          "internalType": "enum ERC1155Dex.OrderType",
          "name": "order_type",
          "type": "uint8"
        },
        {
          "internalType": "uint256",
          "name": "nft_id",
          "type": "uint256"
        },
        {
          "internalType": "uint256",
          "name": "price",
          "type": "uint256"
        },
        {
          "internalType": "bool",
          "name": "completed",
          "type": "bool"
        },
        {
          "internalType": "address",
          "name": "maker",
          "type": "address"
        }
      ],
      "stateMutability": "view",
      "type": "function"
    },
    {
      "inputs": [],
      "name": "owner",
      "outputs": [
        {
          "internalType": "address",
          "name": "",
          "type": "address"
        }
      ],
      "stateMutability": "view",
      "type": "function"
    },
    {
      "inputs": [
        {
          "internalType": "uint256",
          "name": "nft_id",
          "type": "uint256"
        },
        {
          "internalType": "uint256",
          "name": "price",
          "type": "uint256"
        }
      ],
      "name": "post_ask",
      "outputs": [
        {
          "internalType": "uint256",
          "name": "order_id",
          "type": "uint256"
        }
      ],
      "stateMutability": "nonpayable",
      "type": "function"
    },
    {
      "inputs": [
        {
          "internalType": "uint256",
          "name": "nft_id",
          "type": "uint256"
        }
      ],
      "name": "post_bid",
      "outputs": [
        {
          "internalType": "uint256",
          "name": "order_id",
          "type": "uint256"
        }
      ],
      "stateMutability": "payable",
      "type": "function"
    },
    {
      "inputs": [],
      "name": "refund_count",
      "outputs": [
        {
          "internalType": "uint256",
          "name": "",
          "type": "uint256"
        }
      ],
      "stateMutability": "view",
      "type": "function"
    },
    {
      "inputs": [],
      "name": "renounceOwnership",
      "outputs": [],
      "stateMutability": "nonpayable",
      "type": "function"
    },
    {
      "inputs": [
        {
          "internalType": "address",
          "name": "from",
          "type": "address"
        },
        {
          "internalType": "address",
          "name": "to",
          "type": "address"
        },
        {
          "internalType": "uint256[]",
          "name": "ids",
          "type": "uint256[]"
        },
        {
          "internalType": "uint256[]",
          "name": "amounts",
          "type": "uint256[]"
        },
        {
          "internalType": "bytes",
          "name": "data",
          "type": "bytes"
        }
      ],
      "name": "safeBatchTransferFrom",
      "outputs": [],
      "stateMutability": "nonpayable",
      "type": "function"
    },
    {
      "inputs": [
        {
          "internalType": "address",
          "name": "from",
          "type": "address"
        },
        {
          "internalType": "address",
          "name": "to",
          "type": "address"
        },
        {
          "internalType": "uint256",
          "name": "id",
          "type": "uint256"
        },
        {
          "internalType": "uint256",
          "name": "amount",
          "type": "uint256"
        },
        {
          "internalType": "bytes",
          "name": "data",
          "type": "bytes"
        }
      ],
      "name": "safeTransferFrom",
      "outputs": [],
      "stateMutability": "nonpayable",
      "type": "function"
    },
    {
      "inputs": [
        {
          "internalType": "address",
          "name": "operator",
          "type": "address"
        },
        {
          "internalType": "bool",
          "name": "approved",
          "type": "bool"
        }
      ],
      "name": "setApprovalForAll",
      "outputs": [],
      "stateMutability": "nonpayable",
      "type": "function"
    },
    {
      "inputs": [
        {
          "internalType": "bytes4",
          "name": "interfaceId",
          "type": "bytes4"
        }
      ],
      "name": "supportsInterface",
      "outputs": [
        {
          "internalType": "bool",
          "name": "",
          "type": "bool"
        }
      ],
      "stateMutability": "view",
      "type": "function"
    },
    {
      "inputs": [],
      "name": "title",
      "outputs": [
        {
          "internalType": "string",
          "name": "",
          "type": "string"
        }
      ],
      "stateMutability": "view",
      "type": "function"
    },
    {
      "inputs": [],
      "name": "total_debt",
      "outputs": [
        {
          "internalType": "uint256",
          "name": "",
          "type": "uint256"
        }
      ],
      "stateMutability": "view",
      "type": "function"
    },
    {
      "inputs": [
        {
          "internalType": "address",
          "name": "newOwner",
          "type": "address"
        }
      ],
      "name": "transferOwnership",
      "outputs": [],
      "stateMutability": "nonpayable",
      "type": "function"
    },
    {
      "inputs": [],
      "name": "update_count",
      "outputs": [
        {
          "internalType": "uint256",
          "name": "",
          "type": "uint256"
        }
      ],
      "stateMutability": "view",
      "type": "function"
    },
    {
      "inputs": [
        {
          "internalType": "uint256",
          "name": "",
          "type": "uint256"
        }
      ],
      "name": "updates",
      "outputs": [
        {
          "internalType": "uint256",
          "name": "timestamp",
          "type": "uint256"
        },
        {
          "internalType": "string",
          "name": "content",
          "type": "string"
        }
      ],
      "stateMutability": "view",
      "type": "function"
    },
    {
      "inputs": [
        {
          "internalType": "uint256",
          "name": "",
          "type": "uint256"
        }
      ],
      "name": "uri",
      "outputs": [
        {
          "internalType": "string",
          "name": "",
          "type": "string"
        }
      ],
      "stateMutability": "view",
      "type": "function"
    },
    {
      "inputs": [],
      "name": "withdraw",
      "outputs": [],
      "stateMutability": "nonpayable",
      "type": "function"
    },
    {
      "stateMutability": "payable",
      "type": "receive"
    }
  ],
  "bytecode": "0x6080604052600060048190556006805460ff199081169091556009829055600e8290556010829055601182905560128054909116905560168190556017553480156200004a57600080fd5b5060405162003e5138038062003e518339810160408190526200006d91620007fe565b888888888585836200008384620151806200097e565b6200008f904262000963565b816200009b81620004c0565b5060055550620000ab33620004d9565b600083118015620000bd5750605a8311155b6200010f5760405162461bcd60e51b815260206004820152601660248201527f496d70726f7065722064617973206c656e6774682e200000000000000000000060448201526064015b60405180910390fd5b6200011a8562000533565b600880546001600160a01b0319166001600160a01b03881617905581516200014a9060139060208501906200061f565b508051620001609060149060208401906200061f565b505050505050508351855114620001ca5760405162461bcd60e51b815260206004820152602760248201527f416d6f756e747320616e6420696e74657265737473206c656e677468206d6973604482015266036b0ba31b417160cd1b606482015260840162000106565b83518351146200022e5760405162461bcd60e51b815260206004820152602860248201527f537570706c69657320616e6420696e74657265737473206c656e677468206d69604482015267039b6b0ba31b417160c51b606482015260840162000106565b6000855111620002815760405162461bcd60e51b815260206004820152601360248201527f4d75737420626520736f6d65206c6f616e2e2000000000000000000000000000604482015260640162000106565b60005b8551811015620004ab576064858281518110620002b157634e487b7160e01b600052603260045260246000fd5b60200260200101511015620003095760405162461bcd60e51b815260206004820152601f60248201527f496e746572657374206973206c657373207468616e206d696e696d616c2e2000604482015260640162000106565b6103e88682815181106200032d57634e487b7160e01b600052603260045260246000fd5b60200260200101511015620003855760405162461bcd60e51b815260206004820152601d60248201527f416d6f756e74206973206c657373207468616e206d696e696d616c2e20000000604482015260640162000106565b60008181526015602052604090208551869083908110620003b657634e487b7160e01b600052603260045260246000fd5b60200260200101518160000181905550848281518110620003e757634e487b7160e01b600052603260045260246000fd5b602002602001015181600201819055508682815181106200041857634e487b7160e01b600052603260045260246000fd5b60209081029190910181015160018084019182556007805491820181556000527fa66cc928b5edb82af9bd49922954155ab7b0942694bea4ce44661d9a8736c68801849055600283015490546200047b92909190620020486200060a821b17901c565b600a60008282546200048e919062000963565b90915550829150620004a2905081620009dd565b91505062000284565b50509251600c555062000a2795505050505050565b8051620004d59060029060208401906200061f565b5050565b600680546001600160a01b03838116610100818102610100600160a81b031985161790945560405193909204169182907f8be0079c531659141344cd1fd0a4f28419497f9722a3daafe3b4186f6b6457e090600090a35050565b6006546001600160a01b03610100909104163314620005955760405162461bcd60e51b815260206004820181905260248201527f4f776e61626c653a2063616c6c6572206973206e6f7420746865206f776e6572604482015260640162000106565b6001600160a01b038116620005fc5760405162461bcd60e51b815260206004820152602660248201527f4f776e61626c653a206e6577206f776e657220697320746865207a65726f206160448201526564647265737360d01b606482015260840162000106565b6200060781620004d9565b50565b60006200061882846200097e565b9392505050565b8280546200062d90620009a0565b90600052602060002090601f0160209004810192826200065157600085556200069c565b82601f106200066c57805160ff19168380011785556200069c565b828001600101855582156200069c579182015b828111156200069c5782518255916020019190600101906200067f565b50620006aa929150620006ae565b5090565b5b80821115620006aa5760008155600101620006af565b80516001600160a01b0381168114620006dd57600080fd5b919050565b600082601f830112620006f3578081fd5b815160206001600160401b0382111562000711576200071162000a11565b8160051b6200072282820162000930565b8381528281019086840183880185018910156200073d578687fd5b8693505b858410156200076157805183526001939093019291840191840162000741565b50979650505050505050565b600082601f8301126200077e578081fd5b81516001600160401b038111156200079a576200079a62000a11565b6020620007b0601f8301601f1916820162000930565b8281528582848701011115620007c4578384fd5b835b83811015620007e3578581018301518282018401528201620007c6565b83811115620007f457848385840101525b5095945050505050565b60008060008060008060008060006101208a8c0312156200081d578485fd5b620008288a620006c5565b98506200083860208b01620006c5565b60408b01519098506001600160401b038082111562000855578687fd5b620008638d838e016200076d565b985060608c0151975060808c015191508082111562000880578687fd5b6200088e8d838e01620006e2565b965060a08c0151915080821115620008a4578586fd5b620008b28d838e01620006e2565b955060c08c0151915080821115620008c8578485fd5b620008d68d838e01620006e2565b945060e08c0151915080821115620008ec578384fd5b620008fa8d838e016200076d565b93506101008c015191508082111562000911578283fd5b50620009208c828d016200076d565b9150509295985092959850929598565b604051601f8201601f191681016001600160401b03811182821017156200095b576200095b62000a11565b604052919050565b60008219821115620009795762000979620009fb565b500190565b60008160001904831182151516156200099b576200099b620009fb565b500290565b600181811c90821680620009b557607f821691505b60208210811415620009d757634e487b7160e01b600052602260045260246000fd5b50919050565b6000600019821415620009f457620009f4620009fb565b5060010190565b634e487b7160e01b600052601160045260246000fd5b634e487b7160e01b600052604160045260246000fd5b61341a8062000a376000396000f3fe60806040526004361061026a5760003560e01c80638da5cb5b11610144578063d747a1af116100b6578063f2fde38b1161007a578063f2fde38b146107da578063f67719d1146107fa578063f75acbfd14610810578063fac333ac14610826578063ffc5669614610846578063ffedfa2f1461085c576102a5565b8063d747a1af146106c1578063d760208f146106e1578063e2597dd21461070f578063e985e9c514610771578063f242432a146107ba576102a5565b8063ae64d26d11610108578063ae64d26d14610622578063aef050bf14610638578063b41dc1a71461064d578063b4c2f72714610660578063cc0f386b1461068e578063d1460724146106a1576102a5565b80638da5cb5b146105565780638ebb4c151461058c578063a22cb465146105ba578063a85c38ef146105da578063ad9f20a61461060c576102a5565b80633ccfd60b116101dd57806356296297116101a157806356296297146104bc57806360908149146104d6578063715018a6146104f6578063783261351461050b5780637a09bbf714610521578063824f4baf14610541576102a5565b80633ccfd60b146104355780634a79d50c1461044a5780634b6026bb1461045f5780634e1273f414610479578063541ffbdb146104a6576102a5565b80632996c1651161022f5780632996c1651461039d57806329dcb0cf146103bd5780632a1f1199146103d35780632b9e66ee146103e95780632eb2c2d6146103ff57806331dc3ca81461041f576102a5565b8062fdd58e146102d757806301ffc9a71461030a578063045ca5881461033a5780630e89341c146103505780631e67a4ec1461037d576102a5565b366102a55734156102a35760405133903480156108fc02916000818181858888f193505050501580156102a1573d6000803e3d6000fd5b505b005b34156102a35760405133903480156108fc02916000818181858888f193505050501580156102a1573d6000803e3d6000fd5b3480156102e357600080fd5b506102f76102f2366004612c0e565b61086f565b6040519081526020015b60405180910390f35b34801561031657600080fd5b5061032a610325366004612d1e565b610906565b6040519015158152602001610301565b34801561034657600080fd5b506102f760115481565b34801561035c57600080fd5b5061037061036b366004612da4565b610958565b6040516103019190612f8c565b34801561038957600080fd5b506102a3610398366004612d56565b6109ec565b3480156103a957600080fd5b506102a36103b8366004612da4565b610ae5565b3480156103c957600080fd5b506102f760055481565b3480156103df57600080fd5b506102f760045481565b3480156103f557600080fd5b506102f7600c5481565b34801561040b57600080fd5b506102a361041a366004612acf565b610c09565b34801561042b57600080fd5b506102f760165481565b34801561044157600080fd5b506102a3610ca0565b34801561045657600080fd5b50610370610e89565b34801561046b57600080fd5b5060065461032a9060ff1681565b34801561048557600080fd5b50610499610494366004612c37565b610f17565b6040516103019190612f4b565b3480156104b257600080fd5b506102f760105481565b3480156104c857600080fd5b5060125461032a9060ff1681565b3480156104e257600080fd5b506102a36104f1366004612d56565b611079565b34801561050257600080fd5b506102a3611178565b34801561051757600080fd5b506102f7600a5481565b34801561052d57600080fd5b506102f761053c366004612dbc565b6111b4565b34801561054d57600080fd5b506103706113d6565b34801561056257600080fd5b5060065461010090046001600160a01b03166040516001600160a01b039091168152602001610301565b34801561059857600080fd5b506105ac6105a7366004612da4565b6113e3565b604051610301929190612f27565b3480156105c657600080fd5b506102a36105d5366004612bd8565b6114a5565b3480156105e657600080fd5b506105fa6105f5366004612da4565b61157c565b604051610301969594939291906131ba565b34801561061857600080fd5b506102f76103e881565b34801561062e57600080fd5b506102f760095481565b34801561064457600080fd5b506102f7606481565b6102a361065b366004612da4565b6115d4565b34801561066c57600080fd5b5061068061067b366004612da4565b6117da565b6040516103019291906131fb565b6102f761069c366004612da4565b61180f565b3480156106ad57600080fd5b506105ac6106bc366004612da4565b611a25565b3480156106cd57600080fd5b506102a36106dc366004612da4565b611b4d565b3480156106ed57600080fd5b506107016106fc366004612da4565b611c76565b604051610301929190612f9f565b34801561071b57600080fd5b5061075161072a366004612da4565b60156020526000908152604090208054600182015460028301546003909301549192909184565b604080519485526020850193909352918301526060820152608001610301565b34801561077d57600080fd5b5061032a61078c366004612a9d565b6001600160a01b03918216600090815260016020908152604080832093909416825291909152205460ff1690565b3480156107c657600080fd5b506102a36107d5366004612b75565b611d90565b3480156107e657600080fd5b506102a36107f5366004612a83565b611e17565b34801561080657600080fd5b506102f7600b5481565b34801561081c57600080fd5b506102f760175481565b34801561083257600080fd5b506102f7610841366004612da4565b611eb8565b34801561085257600080fd5b506102f7600e5481565b6102a361086a366004612da4565b611ed9565b60006001600160a01b0383166108e05760405162461bcd60e51b815260206004820152602b60248201527f455243313135353a2062616c616e636520717565727920666f7220746865207a60448201526a65726f206164647265737360a81b60648201526084015b60405180910390fd5b506000908152602081815260408083206001600160a01b03949094168352929052205490565b60006001600160e01b03198216636cdb3d1360e11b148061093757506001600160e01b031982166303a24d0760e21b145b8061095257506301ffc9a760e01b6001600160e01b03198316145b92915050565b6060600280546109679061326f565b80601f01602080910402602001604051908101604052809291908181526020018280546109939061326f565b80156109e05780601f106109b5576101008083540402835291602001916109e0565b820191906000526020600020905b8154815290600101906020018083116109c357829003601f168201915b50505050509050919050565b604080518082019091523381526020808201838152600d8054600181018255600091909152835160029091027fd7b6990105719101dabeb77144f2a3385c8033acd3af97e9423a695e81ad1eb5810180546001600160a01b03939093166001600160a01b0319909316929092178255915180519193610a90937fd7b6990105719101dabeb77144f2a3385c8033acd3af97e9423a695e81ad1eb601929101906128dd565b5050600e80547fcc2d7dd2085ae6644799a42c0174adf9afc10a43f26db5eac3ddd1f96d1d64be9250906000610ac5836132d7565b919050553383604051610ada93929190613157565b60405180910390a150565b600060038281548110610b0857634e487b7160e01b600052603260045260246000fd5b60009182526020909120600590910201600481015490915060ff1615610b405760405162461bcd60e51b81526004016108d790613037565b60048101546001600160a01b03610100909104163314610b9c5760405162461bcd60e51b815260206004820152601760248201527602cb7ba9030b932903737ba103a34329036b0b5b2b9171604d1b60448201526064016108d7565b610bbc33826002015460016040518060200160405280600081525061205b565b60048101805460ff191660011790556040517fc41f4ceb2938876c35e61b705e9d2f18a02c4a26ce5e049a6308a943d46851b390610bfd9084815260200190565b60405180910390a15050565b6001600160a01b038516331480610c255750610c25853361078c565b610c8c5760405162461bcd60e51b815260206004820152603260248201527f455243313135353a207472616e736665722063616c6c6572206973206e6f74206044820152711bdddb995c881b9bdc88185c1c1c9bdd995960721b60648201526084016108d7565b610c998585858585612165565b5050505050565b6006546001600160a01b03610100909104163314610cd05760405162461bcd60e51b81526004016108d7906130f4565b600554421015610d175760405162461bcd60e51b8152602060048201526012602482015271021b0b6b830b4b3b71034b99037b832b717160751b60448201526064016108d7565b60065460ff16610d615760405162461bcd60e51b8152602060048201526015602482015274021b0b6b830b4b3b7103737ba10333ab73232b2171605d1b60448201526064016108d7565b600b54600090610d72906002612048565b6000600b5560085460405163a9059cbb60e01b8152336004820152602481018390529192506001600160a01b03169063a9059cbb90604401602060405180830381600087803b158015610dc457600080fd5b505af1158015610dd8573d6000803e3d6000fd5b505050506040513d601f19601f82011682018060405250810190610dfc9190612d02565b610e535760405162461bcd60e51b815260206004820152602260248201527f4572726f72206d616b696e672061207769746864726177207472616e73666572604482015261017160f51b60648201526084016108d7565b60408051338152602081018390527f7084f5476618d8e60b11ef0d7d3f06914655adb8793e28ff7f018d4c76d505d59101610ada565b60138054610e969061326f565b80601f0160208091040260200160405190810160405280929190818152602001828054610ec29061326f565b8015610f0f5780601f10610ee457610100808354040283529160200191610f0f565b820191906000526020600020905b815481529060010190602001808311610ef257829003601f168201915b505050505081565b60608151835114610f7c5760405162461bcd60e51b815260206004820152602960248201527f455243313135353a206163636f756e747320616e6420696473206c656e677468604482015268040dad2e6dac2e8c6d60bb1b60648201526084016108d7565b6000835167ffffffffffffffff811115610fa657634e487b7160e01b600052604160045260246000fd5b604051908082528060200260200182016040528015610fcf578160200160208202803683370190505b50905060005b84518110156110715761103685828151811061100157634e487b7160e01b600052603260045260246000fd5b602002602001015185838151811061102957634e487b7160e01b600052603260045260246000fd5b602002602001015161086f565b82828151811061105657634e487b7160e01b600052603260045260246000fd5b602090810291909101015261106a816132d7565b9050610fd5565b509392505050565b6006546001600160a01b036101009091041633146110a95760405162461bcd60e51b81526004016108d7906130f4565b604080518082019091524281526020808201838152600f8054600181018255600091909152835160029091027f8d1108e10bcb7c27dddfc02ed9d693a074039d026cf4ea4240b40f7d581ac8028101918255915180519193611130937f8d1108e10bcb7c27dddfc02ed9d693a074039d026cf4ea4240b40f7d581ac80301929101906128dd565b5050601080547fc76497df999dfea988f5a0f07e8897692c042cc4ed233e65b817365c692bbb0f9250906000611165836132d7565b9190505582604051610ada9291906131fb565b6006546001600160a01b036101009091041633146111a85760405162461bcd60e51b81526004016108d7906130f4565b6111b2600061235e565b565b600060055442106111d75760405162461bcd60e51b81526004016108d790613129565b60065460ff16156111fa5760405162461bcd60e51b81526004016108d790613009565b6103e882101561124c5760405162461bcd60e51b815260206004820152601c60248201527f5072696365206973206c657373207468616e206d696e696d616c2e200000000060448201526064016108d7565b611258338460016123b8565b506004546040805160c081018252828152600160208201818152928201869052606082018590526000608083018190523360a08401526003805480840182559152825160059091027fc2575a0e9e593c00f959f8c92f12db2869c3395a3b0502d05e2516446f71f85b810191825593517fc2575a0e9e593c00f959f8c92f12db2869c3395a3b0502d05e2516446f71f85c9094018054939491939192909160ff191690838181111561131a57634e487b7160e01b600052602160045260246000fd5b0217905550604082015160028201556060820151600382015560808201516004918201805460a0909401516001600160a01b031661010002610100600160a81b0319921515929092166001600160a81b031990941693909317179091558054906000611385836132d7565b91905055507f62317d9a57a5daf76ddf50f27c2f5e8ee74ec45e74c658ee168747579d76a18581600185856113b73390565b6040516113c8959493929190613181565b60405180910390a192915050565b60148054610e969061326f565b600d81815481106113f357600080fd5b6000918252602090912060029091020180546001820180546001600160a01b039092169350906114229061326f565b80601f016020809104026020016040519081016040528092919081815260200182805461144e9061326f565b801561149b5780601f106114705761010080835404028352916020019161149b565b820191906000526020600020905b81548152906001019060200180831161147e57829003601f168201915b5050505050905082565b336001600160a01b03831614156115105760405162461bcd60e51b815260206004820152602960248201527f455243313135353a2073657474696e6720617070726f76616c20737461747573604482015268103337b91039b2b63360b91b60648201526084016108d7565b3360008181526001602090815260408083206001600160a01b03871680855290835292819020805460ff191686151590811790915590519081529192917f17307eab39ab6107e8899845ad3d59bd9653f200f220920489ca2b5937696c31910160405180910390a35050565b6003818154811061158c57600080fd5b60009182526020909120600590910201805460018201546002830154600384015460049094015492945060ff918216939092909181169061010090046001600160a01b031686565b60055442106115f55760405162461bcd60e51b81526004016108d790613129565b60065460ff16156116185760405162461bcd60e51b81526004016108d790613009565b60006003828154811061163b57634e487b7160e01b600052603260045260246000fd5b60009182526020909120600590910201600481015490915060ff16156116735760405162461bcd60e51b81526004016108d790613037565b60048101546001600160a01b03610100909104163314156116cc5760405162461bcd60e51b815260206004820152601360248201527202cb7ba9030b932903a34329036b0b5b2b9171606d1b60448201526064016108d7565b80600301543410156117205760405162461bcd60e51b815260206004820152601760248201527f4e6f7420656e6f756768206d6f6e65792073656e742e2000000000000000000060448201526064016108d7565b61174033826002015460016040518060200160405280600081525061205b565b600481015460038201546040516101009092046001600160a01b0316916108fc82150291906000818181858888f19350505050158015611784573d6000803e3d6000fd5b5060048101805460ff191660011790557f2b5e8b63b9bdec78112f8183b2dacdb0a2c0f38f63d3bfc060172b603a9e5542826117bd3390565b604080519283526001600160a01b03909116602083015201610bfd565b600f81815481106117ea57600080fd5b600091825260209091206002909102018054600182018054919350906114229061326f565b600060055442106118325760405162461bcd60e51b81526004016108d790613129565b60065460ff16156118555760405162461bcd60e51b81526004016108d790613009565b6103e83410156118a75760405162461bcd60e51b815260206004820152601c60248201527f5072696365206973206c657373207468616e206d696e696d616c2e200000000060448201526064016108d7565b506004546040805160c081018252828152600060208201818152928201859052346060830152608082018190523360a0830152600380546001808201835591909252825160059092027fc2575a0e9e593c00f959f8c92f12db2869c3395a3b0502d05e2516446f71f85b810192835593517fc2575a0e9e593c00f959f8c92f12db2869c3395a3b0502d05e2516446f71f85c909401805493949293909160ff1990911690838181111561196a57634e487b7160e01b600052602160045260246000fd5b0217905550604082015160028201556060820151600382015560808201516004918201805460a0909401516001600160a01b031661010002610100600160a81b0319921515929092166001600160a81b0319909416939093171790915580549060006119d5836132d7565b91905055507f62317d9a57a5daf76ddf50f27c2f5e8ee74ec45e74c658ee168747579d76a1858160008434611a073390565b604051611a18959493929190613181565b60405180910390a1919050565b60006060600e548310611a6e5760405162461bcd60e51b8152602060048201526011602482015270027379039bab1b41031b7b6b6b2b73a171607d1b60448201526064016108d7565b6000600d8481548110611a9157634e487b7160e01b600052603260045260246000fd5b6000918252602090912060029091020180546001820180549293506001600160a01b03909116918190611ac39061326f565b80601f0160208091040260200160405190810160405280929190818152602001828054611aef9061326f565b8015611b3c5780601f10611b1157610100808354040283529160200191611b3c565b820191906000526020600020905b815481529060010190602001808311611b1f57829003601f168201915b505050505090509250925050915091565b600060038281548110611b7057634e487b7160e01b600052603260045260246000fd5b60009182526020909120600590910201600481015490915060ff1615611ba85760405162461bcd60e51b81526004016108d790613037565b60048101546001600160a01b03610100909104163314611c045760405162461bcd60e51b815260206004820152601760248201527602cb7ba9030b932903737ba103a34329036b0b5b2b9171604d1b60448201526064016108d7565b6003810154604051339180156108fc02916000818181858888f19350505050158015611c34573d6000803e3d6000fd5b5060048101805460ff191660011790556040517fc41f4ceb2938876c35e61b705e9d2f18a02c4a26ce5e049a6308a943d46851b390610bfd9084815260200190565b606060006010548310611cbe5760405162461bcd60e51b815260206004820152601060248201526f027379039bab1b4103ab83230ba3297160851b60448201526064016108d7565b6000600f8481548110611ce157634e487b7160e01b600052603260045260246000fd5b90600052602060002090600202019050806001018160000154818054611d069061326f565b80601f0160208091040260200160405190810160405280929190818152602001828054611d329061326f565b8015611d7f5780601f10611d5457610100808354040283529160200191611d7f565b820191906000526020600020905b815481529060010190602001808311611d6257829003601f168201915b505050505091509250925050915091565b6001600160a01b038516331480611dac5750611dac853361078c565b611e0a5760405162461bcd60e51b815260206004820152602960248201527f455243313135353a2063616c6c6572206973206e6f74206f776e6572206e6f7260448201526808185c1c1c9bdd995960ba1b60648201526084016108d7565b610c998585858585612532565b6006546001600160a01b03610100909104163314611e475760405162461bcd60e51b81526004016108d7906130f4565b6001600160a01b038116611eac5760405162461bcd60e51b815260206004820152602660248201527f4f776e61626c653a206e6577206f776e657220697320746865207a65726f206160448201526564647265737360d01b60648201526084016108d7565b611eb58161235e565b50565b60078181548110611ec857600080fd5b600091825260209091200154905081565b6005544210611efa5760405162461bcd60e51b81526004016108d790613129565b60065460ff1615611f1d5760405162461bcd60e51b81526004016108d790613009565b600060038281548110611f4057634e487b7160e01b600052603260045260246000fd5b60009182526020909120600590910201600481015490915060ff1615611f785760405162461bcd60e51b81526004016108d790613037565b60048101546001600160a01b0361010090910416331415611fd15760405162461bcd60e51b815260206004820152601360248201527202cb7ba9030b932903a34329036b0b5b2b9171606d1b60448201526064016108d7565b611fe133826002015460016123b8565b6120188160040160019054906101000a90046001600160a01b0316826002015460016040518060200160405280600081525061205b565b6003810154604051339180156108fc02916000818181858888f19350505050158015611784573d6000803e3d6000fd5b60006120548284613250565b9392505050565b6001600160a01b0384166120bb5760405162461bcd60e51b815260206004820152602160248201527f455243313135353a206d696e7420746f20746865207a65726f206164647265736044820152607360f81b60648201526084016108d7565b336120d5816000876120cc8861264f565b610c998861264f565b6000848152602081815260408083206001600160a01b038916845290915281208054859290612105908490613238565b909155505060408051858152602081018590526001600160a01b0380881692600092918516917fc3d58168c5ae7397731d063d5bbf3d657854427343f4c083240f7aacaa2d0f62910160405180910390a4610c99816000878787876126a8565b81518351146121c75760405162461bcd60e51b815260206004820152602860248201527f455243313135353a2069647320616e6420616d6f756e7473206c656e677468206044820152670dad2e6dac2e8c6d60c31b60648201526084016108d7565b6001600160a01b0384166121ed5760405162461bcd60e51b81526004016108d790613065565b3360005b84518110156122f057600085828151811061221c57634e487b7160e01b600052603260045260246000fd5b60200260200101519050600085838151811061224857634e487b7160e01b600052603260045260246000fd5b602090810291909101810151600084815280835260408082206001600160a01b038e1683529093529190912054909150818110156122985760405162461bcd60e51b81526004016108d7906130aa565b6000838152602081815260408083206001600160a01b038e8116855292528083208585039055908b168252812080548492906122d5908490613238565b92505081905550505050806122e9906132d7565b90506121f1565b50846001600160a01b0316866001600160a01b0316826001600160a01b03167f4a39dc06d4c0dbc64b70af90fd698a233a518aa5d07e595d983b8c0526c8f7fb8787604051612340929190612f5e565b60405180910390a4612356818787878787612813565b505050505050565b600680546001600160a01b03838116610100818102610100600160a81b031985161790945560405193909204169182907f8be0079c531659141344cd1fd0a4f28419497f9722a3daafe3b4186f6b6457e090600090a35050565b6001600160a01b03831661241a5760405162461bcd60e51b815260206004820152602360248201527f455243313135353a206275726e2066726f6d20746865207a65726f206164647260448201526265737360e81b60648201526084016108d7565b3361244a8185600061242b8761264f565b6124348761264f565b5050604080516020810190915260009052505050565b6000838152602081815260408083206001600160a01b0388168452909152902054828110156124c75760405162461bcd60e51b8152602060048201526024808201527f455243313135353a206275726e20616d6f756e7420657863656564732062616c604482015263616e636560e01b60648201526084016108d7565b6000848152602081815260408083206001600160a01b03898116808652918452828520888703905582518981529384018890529092908616917fc3d58168c5ae7397731d063d5bbf3d657854427343f4c083240f7aacaa2d0f62910160405180910390a45050505050565b6001600160a01b0384166125585760405162461bcd60e51b81526004016108d790613065565b336125688187876120cc8861264f565b6000848152602081815260408083206001600160a01b038a168452909152902054838110156125a95760405162461bcd60e51b81526004016108d7906130aa565b6000858152602081815260408083206001600160a01b038b81168552925280832087850390559088168252812080548692906125e6908490613238565b909155505060408051868152602081018690526001600160a01b03808916928a821692918616917fc3d58168c5ae7397731d063d5bbf3d657854427343f4c083240f7aacaa2d0f62910160405180910390a46126468288888888886126a8565b50505050505050565b6040805160018082528183019092526060916000919060208083019080368337019050509050828160008151811061269757634e487b7160e01b600052603260045260246000fd5b602090810291909101015292915050565b6001600160a01b0384163b156123565760405163f23a6e6160e01b81526001600160a01b0385169063f23a6e61906126ec9089908990889088908890600401612ee2565b602060405180830381600087803b15801561270657600080fd5b505af1925050508015612736575060408051601f3d908101601f1916820190925261273391810190612d3a565b60015b6127e35761274261331e565b806308c379a0141561277c5750612757613336565b80612762575061277e565b8060405162461bcd60e51b81526004016108d79190612f8c565b505b60405162461bcd60e51b815260206004820152603460248201527f455243313135353a207472616e7366657220746f206e6f6e20455243313135356044820152732932b1b2b4bb32b91034b6b83632b6b2b73a32b960611b60648201526084016108d7565b6001600160e01b0319811663f23a6e6160e01b146126465760405162461bcd60e51b81526004016108d790612fc1565b6001600160a01b0384163b156123565760405163bc197c8160e01b81526001600160a01b0385169063bc197c81906128579089908990889088908890600401612e84565b602060405180830381600087803b15801561287157600080fd5b505af19250505080156128a1575060408051601f3d908101601f1916820190925261289e91810190612d3a565b60015b6128ad5761274261331e565b6001600160e01b0319811663bc197c8160e01b146126465760405162461bcd60e51b81526004016108d790612fc1565b8280546128e99061326f565b90600052602060002090601f01602090048101928261290b5760008555612951565b82601f1061292457805160ff1916838001178555612951565b82800160010185558215612951579182015b82811115612951578251825591602001919060010190612936565b5061295d929150612961565b5090565b5b8082111561295d5760008155600101612962565b600067ffffffffffffffff83111561299057612990613308565b6040516129a7601f8501601f1916602001826132aa565b8091508381528484840111156129bc57600080fd5b83836020830137600060208583010152509392505050565b80356001600160a01b03811681146129eb57600080fd5b919050565b600082601f830112612a00578081fd5b81356020612a0d82613214565b604051612a1a82826132aa565b8381528281019150858301600585901b87018401881015612a39578586fd5b855b85811015612a5757813584529284019290840190600101612a3b565b5090979650505050505050565b600082601f830112612a74578081fd5b61205483833560208501612976565b600060208284031215612a94578081fd5b612054826129d4565b60008060408385031215612aaf578081fd5b612ab8836129d4565b9150612ac6602084016129d4565b90509250929050565b600080600080600060a08688031215612ae6578081fd5b612aef866129d4565b9450612afd602087016129d4565b9350604086013567ffffffffffffffff80821115612b19578283fd5b612b2589838a016129f0565b94506060880135915080821115612b3a578283fd5b612b4689838a016129f0565b93506080880135915080821115612b5b578283fd5b50612b6888828901612a64565b9150509295509295909350565b600080600080600060a08688031215612b8c578081fd5b612b95866129d4565b9450612ba3602087016129d4565b93506040860135925060608601359150608086013567ffffffffffffffff811115612bcc578182fd5b612b6888828901612a64565b60008060408385031215612bea578182fd5b612bf3836129d4565b91506020830135612c03816133c0565b809150509250929050565b60008060408385031215612c20578182fd5b612c29836129d4565b946020939093013593505050565b60008060408385031215612c49578182fd5b823567ffffffffffffffff80821115612c60578384fd5b818501915085601f830112612c73578384fd5b81356020612c8082613214565b604051612c8d82826132aa565b8381528281019150858301600585901b870184018b1015612cac578889fd5b8896505b84871015612cd557612cc1816129d4565b835260019690960195918301918301612cb0565b5096505086013592505080821115612ceb578283fd5b50612cf8858286016129f0565b9150509250929050565b600060208284031215612d13578081fd5b8151612054816133c0565b600060208284031215612d2f578081fd5b8135612054816133ce565b600060208284031215612d4b578081fd5b8151612054816133ce565b600060208284031215612d67578081fd5b813567ffffffffffffffff811115612d7d578182fd5b8201601f81018413612d8d578182fd5b612d9c84823560208401612976565b949350505050565b600060208284031215612db5578081fd5b5035919050565b60008060408385031215612dce578182fd5b50508035926020909101359150565b6000815180845260208085019450808401835b83811015612e0c57815187529582019590820190600101612df0565b509495945050505050565b60008151808452815b81811015612e3c57602081850181015186830182015201612e20565b81811115612e4d5782602083870101525b50601f01601f19169290920160200192915050565b60028110612e8057634e487b7160e01b600052602160045260246000fd5b9052565b6001600160a01b0386811682528516602082015260a060408201819052600090612eb090830186612ddd565b8281036060840152612ec28186612ddd565b90508281036080840152612ed68185612e17565b98975050505050505050565b6001600160a01b03868116825285166020820152604081018490526060810183905260a060808201819052600090612f1c90830184612e17565b979650505050505050565b6001600160a01b0383168152604060208201819052600090612d9c90830184612e17565b6020815260006120546020830184612ddd565b604081526000612f716040830185612ddd565b8281036020840152612f838185612ddd565b95945050505050565b6020815260006120546020830184612e17565b604081526000612fb26040830185612e17565b90508260208301529392505050565b60208082526028908201527f455243313135353a204552433131353552656365697665722072656a656374656040820152676420746f6b656e7360c01b606082015260800190565b602080825260149082015273021b0b6b830b4b3b71034b990333ab73232b217160651b604082015260600190565b602080825260149082015273027b93232b91034b99031b7b6b83632ba32b217160651b604082015260600190565b60208082526025908201527f455243313135353a207472616e7366657220746f20746865207a65726f206164604082015264647265737360d81b606082015260800190565b6020808252602a908201527f455243313135353a20696e73756666696369656e742062616c616e636520666f60408201526939103a3930b739b332b960b11b606082015260800190565b6020808252818101527f4f776e61626c653a2063616c6c6572206973206e6f7420746865206f776e6572604082015260600190565b602080825260149082015273021b0b6b830b4b3b71034b99031b637b9b2b217160651b604082015260600190565b8381526001600160a01b0383166020820152606060408201819052600090612f8390830184612e17565b85815260a081016131956020830187612e62565b604082019490945260608101929092526001600160a01b031660809091015292915050565b86815260c081016131ce6020830188612e62565b6040820195909552606081019390935290151560808301526001600160a01b031660a09091015292915050565b828152604060208201526000612d9c6040830184612e17565b600067ffffffffffffffff82111561322e5761322e613308565b5060051b60200190565b6000821982111561324b5761324b6132f2565b500190565b600081600019048311821515161561326a5761326a6132f2565b500290565b600181811c9082168061328357607f821691505b602082108114156132a457634e487b7160e01b600052602260045260246000fd5b50919050565b601f8201601f1916810167ffffffffffffffff811182821017156132d0576132d0613308565b6040525050565b60006000198214156132eb576132eb6132f2565b5060010190565b634e487b7160e01b600052601160045260246000fd5b634e487b7160e01b600052604160045260246000fd5b600060033d111561333357600481823e5160e01c5b90565b600060443d10156133445790565b6040516003193d81016004833e81513d67ffffffffffffffff816024840111818411171561337457505050505090565b828501915081518181111561338c5750505050505090565b843d87010160208285010111156133a65750505050505090565b6133b5602082860101876132aa565b509095945050505050565b8015158114611eb557600080fd5b6001600160e01b031981168114611eb557600080fdfea2646970667358221220969071106653582907ee27b72a5953453e39b29d6ac1d9e1c19af8bcfdd93d2864736f6c63430008040033",
  "linkReferences": {},
  "deployedLinkReferences": {}
}